{
  "contractName": "DEat",
  "abi": [
    {
      "inputs": [],
      "payable": false,
      "stateMutability": "nonpayable",
      "type": "constructor"
    },
    {
      "constant": true,
      "inputs": [
        {
          "internalType": "address",
          "name": "",
          "type": "address"
        },
        {
          "internalType": "uint256",
          "name": "",
          "type": "uint256"
        }
      ],
      "name": "B2I",
      "outputs": [
        {
          "internalType": "uint256",
          "name": "",
          "type": "uint256"
        }
      ],
      "payable": false,
      "stateMutability": "view",
      "type": "function"
    },
    {
      "constant": true,
      "inputs": [
        {
          "internalType": "uint256",
          "name": "",
          "type": "uint256"
        }
      ],
      "name": "C2I",
      "outputs": [
        {
          "internalType": "address",
          "name": "cook",
          "type": "address"
        },
        {
          "internalType": "uint256",
          "name": "id",
          "type": "uint256"
        },
        {
          "internalType": "string",
          "name": "food",
          "type": "string"
        },
        {
          "internalType": "string",
          "name": "loc",
          "type": "string"
        },
        {
          "internalType": "uint256",
          "name": "price",
          "type": "uint256"
        }
      ],
      "payable": false,
      "stateMutability": "view",
      "type": "function"
    },
    {
      "constant": true,
      "inputs": [
        {
          "internalType": "uint256",
          "name": "",
          "type": "uint256"
        }
      ],
      "name": "arrOrd",
      "outputs": [
        {
          "internalType": "uint256",
          "name": "",
          "type": "uint256"
        }
      ],
      "payable": false,
      "stateMutability": "view",
      "type": "function"
    },
    {
      "constant": true,
      "inputs": [],
      "name": "foodCount",
      "outputs": [
        {
          "internalType": "uint256",
          "name": "",
          "type": "uint256"
        }
      ],
      "payable": false,
      "stateMutability": "view",
      "type": "function"
    },
    {
      "constant": false,
      "inputs": [
        {
          "internalType": "address",
          "name": "_cook",
          "type": "address"
        },
        {
          "internalType": "string",
          "name": "_food",
          "type": "string"
        },
        {
          "internalType": "string",
          "name": "_loc",
          "type": "string"
        },
        {
          "internalType": "uint256",
          "name": "_price",
          "type": "uint256"
        }
      ],
      "name": "addFood",
      "outputs": [],
      "payable": false,
      "stateMutability": "nonpayable",
      "type": "function"
    },
    {
      "constant": false,
      "inputs": [
        {
          "internalType": "address",
          "name": "_buyer",
          "type": "address"
        },
        {
          "internalType": "uint256",
          "name": "_id",
          "type": "uint256"
        }
      ],
      "name": "orderFood",
      "outputs": [],
      "payable": false,
      "stateMutability": "nonpayable",
      "type": "function"
    }
  ],
  "bytecode": "0x60806040526000805534801561001457600080fd5b506100a67386478e3dfcfffbbc9b22ba2b0df9a439c097a08f6040518060400160405280600481526020017f43616b65000000000000000000000000000000000000000000000000000000008152506040518060400160405280600f81526020017f416e6e61204e6167617220456173740000000000000000000000000000000000815250600c6101cd60201b60201c565b6101377308144aa4d7faa7e965596094d9e4745b946a5dc96040518060400160405280600781526020017f4e6f6f646c6573000000000000000000000000000000000000000000000000008152506040518060400160405280600981526020017f506572756e67756469000000000000000000000000000000000000000000000081525060296101cd60201b60201c565b6101c8731bdd0248b4ad5a27da5e3482bfa4f5d15473bc236040518060400160405280600e81526020017f426973692042656c6120426174680000000000000000000000000000000000008152506040518060400160405280600581526020017f4164796172000000000000000000000000000000000000000000000000000000815250601f6101cd60201b60201c565b610371565b600080815480929190600101919050555060005460026000805481526020019081526020016000206001018190555083600260008054815260200190815260200160002060000160006101000a81548173ffffffffffffffffffffffffffffffffffffffff021916908373ffffffffffffffffffffffffffffffffffffffff160217905550826002600080548152602001908152602001600020600201908051906020019061027d9291906102cc565b5081600260008054815260200190815260200160002060030190805190602001906102a99291906102cc565b508060026000805481526020019081526020016000206004018190555050505050565b828054600181600116156101000203166002900490600052602060002090601f016020900481019282601f1061030d57805160ff191683800117855561033b565b8280016001018555821561033b579182015b8281111561033a57825182559160200191906001019061031f565b5b509050610348919061034c565b5090565b61036e91905b8082111561036a576000816000905550600101610352565b5090565b90565b610868806103806000396000f3fe608060405234801561001057600080fd5b50600436106100625760003560e01c80636968411b1461006757806371510a2214610085578063a0d649d3146101d9578063cd4848b014610227578063d32fb8db14610289578063d694a58714610405575b600080fd5b61006f610447565b6040518082815260200191505060405180910390f35b6100b16004803603602081101561009b57600080fd5b810190808035906020019092919050505061044d565b604051808673ffffffffffffffffffffffffffffffffffffffff1673ffffffffffffffffffffffffffffffffffffffff1681526020018581526020018060200180602001848152602001838103835286818151815260200191508051906020019080838360005b83811015610133578082015181840152602081019050610118565b50505050905090810190601f1680156101605780820380516001836020036101000a031916815260200191505b50838103825285818151815260200191508051906020019080838360005b8381101561019957808201518184015260208101905061017e565b50505050905090810190601f1680156101c65780820380516001836020036101000a031916815260200191505b5097505050505050505060405180910390f35b610225600480360360408110156101ef57600080fd5b81019080803573ffffffffffffffffffffffffffffffffffffffff169060200190929190803590602001909291905050506105d3565b005b6102736004803603604081101561023d57600080fd5b81019080803573ffffffffffffffffffffffffffffffffffffffff16906020019092919080359060200190929190505050610640565b6040518082815260200191505060405180910390f35b6104036004803603608081101561029f57600080fd5b81019080803573ffffffffffffffffffffffffffffffffffffffff169060200190929190803590602001906401000000008111156102dc57600080fd5b8201836020820111156102ee57600080fd5b8035906020019184600183028401116401000000008311171561031057600080fd5b91908080601f016020809104026020016040519081016040528093929190818152602001838380828437600081840152601f19601f8201169050808301925050505050505091929192908035906020019064010000000081111561037357600080fd5b82018360208201111561038557600080fd5b803590602001918460018302840111640100000000831117156103a757600080fd5b91908080601f016020809104026020016040519081016040528093929190818152602001838380828437600081840152601f19601f8201169050808301925050505050505091929192908035906020019092919050505061066e565b005b6104316004803603602081101561041b57600080fd5b810190808035906020019092919050505061076d565b6040518082815260200191505060405180910390f35b60005481565b60026020528060005260406000206000915090508060000160009054906101000a900473ffffffffffffffffffffffffffffffffffffffff1690806001015490806002018054600181600116156101000203166002900480601f0160208091040260200160405190810160405280929190818152602001828054600181600116156101000203166002900480156105255780601f106104fa57610100808354040283529160200191610525565b820191906000526020600020905b81548152906001019060200180831161050857829003601f168201915b505050505090806003018054600181600116156101000203166002900480601f0160208091040260200160405190810160405280929190818152602001828054600181600116156101000203166002900480156105c35780601f10610598576101008083540402835291602001916105c3565b820191906000526020600020905b8154815290600101906020018083116105a657829003601f168201915b5050505050908060040154905085565b600360008373ffffffffffffffffffffffffffffffffffffffff1673ffffffffffffffffffffffffffffffffffffffff1681526020019081526020016000208190806001815401808255809150509060018203906000526020600020016000909192909190915055505050565b6003602052816000526040600020818154811061065957fe5b90600052602060002001600091509150505481565b600080815480929190600101919050555060005460026000805481526020019081526020016000206001018190555083600260008054815260200190815260200160002060000160006101000a81548173ffffffffffffffffffffffffffffffffffffffff021916908373ffffffffffffffffffffffffffffffffffffffff160217905550826002600080548152602001908152602001600020600201908051906020019061071e92919061078e565b50816002600080548152602001908152602001600020600301908051906020019061074a92919061078e565b508060026000805481526020019081526020016000206004018190555050505050565b6001818154811061077a57fe5b906000526020600020016000915090505481565b828054600181600116156101000203166002900490600052602060002090601f016020900481019282601f106107cf57805160ff19168380011785556107fd565b828001600101855582156107fd579182015b828111156107fc5782518255916020019190600101906107e1565b5b50905061080a919061080e565b5090565b61083091905b8082111561082c576000816000905550600101610814565b5090565b9056fea265627a7a72315820b39e37cbff4a9890407617e44cdf446d398d2e33bb147fb46c88d8bc8c68234564736f6c63430005100032",
  "source": "pragma solidity ^0.5.16;\n\n//3 different pages open up and 3 different SC are deployed based on userType.\n//the 3 contracts talk to each other.\n\ncontract DEat\n{\n  struct Item\n  {\n    address cook;\n    uint id;\n    string food;\n    string loc;\n    uint price;\n  }\n\n  //string public userType;\n  uint public foodCount = 0;\n\n  uint[] public arrOrd;\n  mapping(uint => Item) public C2I;\n  mapping(address => uint[]) public B2I;\n\n  constructor() public\n  {\n    addFood(0x86478E3dFcfffBbc9B22Ba2B0dF9A439C097a08f, 'Cake', 'Anna Nagar East', 12);\n    addFood(0x08144aa4D7faa7e965596094d9E4745B946A5Dc9, 'Noodles', 'Perungudi', 41);\n    addFood(0x1Bdd0248b4aD5a27Da5E3482bFA4F5D15473bC23, 'Bisi Bela Bath', 'Adyar', 31);\n  }\n  function addFood(address _cook,  string memory _food, string memory _loc, uint _price) public\n  {\n    foodCount++;\n    C2I[foodCount].id = foodCount;\n    C2I[foodCount].cook = _cook;\n    C2I[foodCount].food = _food;\n    C2I[foodCount].loc = _loc;\n    C2I[foodCount].price = _price;\n  }\n\n  function orderFood(address _buyer, uint _id) public\n  {\n    B2I[_buyer].push(_id);\n  }\n\n  /*function order_len(address _viewer) private view returns(uint) \n    {  \n        uint ord_len = B2I[_viewer].length;\n        return ord_len; \n    } \n\n  function viewOrders(address _viewer) public view returns(uint[] memory)\n  {\n    address viewer = _viewer;\n    uint ord_len = order_len(viewer);\n    uint[] memory js_ord_arr;\n    uint[] storage sol_ord_arr = B2I[_viewer];\n    for (uint i = 0; i<ord_len; i++)\n    {\n      js_ord_arr[i] = sol_ord_arr[i];\n    }\n    return js_ord_arr;\n  }*/\n}\n",
  "sourcePath": "/Users/varun/Desktop/Deat/contracts/DEat.sol",
  "compiler": {
    "name": "solc",
    "version": "0.5.16+commit.9c3226ce.Emscripten.clang"
  },
  "schemaVersion": "3.4.3",
  "updatedAt": "2022-04-12T11:17:37.608Z",
  "networkType": "ethereum",
  "devdoc": {
    "methods": {}
  },
  "userdoc": {
    "methods": {}
  }
}