{
  "contractName": "DEat",
  "abi": [
    {
      "constant": true,
      "inputs": [
        {
          "internalType": "address",
          "name": "",
          "type": "address"
        }
      ],
      "name": "Uadd2User",
      "outputs": [
        {
          "internalType": "uint256",
          "name": "uid",
          "type": "uint256"
        },
        {
          "internalType": "address",
          "name": "user",
          "type": "address"
        },
        {
          "internalType": "uint32",
          "name": "aadhar",
          "type": "uint32"
        },
        {
          "internalType": "enum DEat.UserType",
          "name": "user_type",
          "type": "uint8"
        },
        {
          "internalType": "enum DEat.Authenticated",
          "name": "status",
          "type": "uint8"
        },
        {
          "internalType": "string",
          "name": "location",
          "type": "string"
        }
      ],
      "payable": false,
      "stateMutability": "view",
      "type": "function"
    },
    {
      "constant": true,
      "inputs": [],
      "name": "foodCount",
      "outputs": [
        {
          "internalType": "uint256",
          "name": "",
          "type": "uint256"
        }
      ],
      "payable": false,
      "stateMutability": "view",
      "type": "function"
    },
    {
      "constant": true,
      "inputs": [
        {
          "internalType": "uint256",
          "name": "",
          "type": "uint256"
        }
      ],
      "name": "id2Food",
      "outputs": [
        {
          "internalType": "address",
          "name": "consumer",
          "type": "address"
        },
        {
          "internalType": "address payable",
          "name": "producer",
          "type": "address"
        },
        {
          "internalType": "address payable",
          "name": "delivery",
          "type": "address"
        },
        {
          "internalType": "uint256",
          "name": "id",
          "type": "uint256"
        },
        {
          "internalType": "string",
          "name": "location",
          "type": "string"
        },
        {
          "internalType": "uint256",
          "name": "price",
          "type": "uint256"
        },
        {
          "internalType": "string",
          "name": "food_name",
          "type": "string"
        },
        {
          "internalType": "string",
          "name": "food_desc",
          "type": "string"
        },
        {
          "internalType": "string",
          "name": "food_img_link",
          "type": "string"
        },
        {
          "internalType": "enum DEat.Phase",
          "name": "phase",
          "type": "uint8"
        }
      ],
      "payable": false,
      "stateMutability": "view",
      "type": "function"
    },
    {
      "constant": true,
      "inputs": [],
      "name": "userCount",
      "outputs": [
        {
          "internalType": "uint256",
          "name": "",
          "type": "uint256"
        }
      ],
      "payable": false,
      "stateMutability": "view",
      "type": "function"
    },
    {
      "constant": false,
      "inputs": [
        {
          "internalType": "address payable",
          "name": "_user",
          "type": "address"
        },
        {
          "internalType": "uint32",
          "name": "_aadhar",
          "type": "uint32"
        },
        {
          "internalType": "enum DEat.UserType",
          "name": "_user_type",
          "type": "uint8"
        },
        {
          "internalType": "string",
          "name": "_location",
          "type": "string"
        }
      ],
      "name": "createUser",
      "outputs": [],
      "payable": false,
      "stateMutability": "nonpayable",
      "type": "function"
    },
    {
      "constant": false,
      "inputs": [
        {
          "internalType": "address payable",
          "name": "_user",
          "type": "address"
        },
        {
          "internalType": "enum DEat.Authenticated",
          "name": "_status",
          "type": "uint8"
        }
      ],
      "name": "validateUser",
      "outputs": [],
      "payable": false,
      "stateMutability": "nonpayable",
      "type": "function"
    },
    {
      "constant": false,
      "inputs": [
        {
          "internalType": "address payable",
          "name": "_producer",
          "type": "address"
        },
        {
          "internalType": "string",
          "name": "_location",
          "type": "string"
        },
        {
          "internalType": "uint256",
          "name": "_price",
          "type": "uint256"
        },
        {
          "internalType": "string",
          "name": "_food_name",
          "type": "string"
        },
        {
          "internalType": "string",
          "name": "_food_desc",
          "type": "string"
        },
        {
          "internalType": "string",
          "name": "_food_img_link",
          "type": "string"
        }
      ],
      "name": "addFood",
      "outputs": [],
      "payable": false,
      "stateMutability": "nonpayable",
      "type": "function"
    },
    {
      "constant": false,
      "inputs": [
        {
          "internalType": "uint256",
          "name": "_id",
          "type": "uint256"
        },
        {
          "internalType": "address",
          "name": "_consumer",
          "type": "address"
        }
      ],
      "name": "orderFood",
      "outputs": [],
      "payable": false,
      "stateMutability": "nonpayable",
      "type": "function"
    },
    {
      "constant": false,
      "inputs": [
        {
          "internalType": "uint256",
          "name": "_id",
          "type": "uint256"
        },
        {
          "internalType": "address payable",
          "name": "_delivery",
          "type": "address"
        }
      ],
      "name": "deliverFood",
      "outputs": [],
      "payable": false,
      "stateMutability": "nonpayable",
      "type": "function"
    }
  ],
  "bytecode": "0x608060405260008055600060015534801561001957600080fd5b506113de806100296000396000f3fe608060405234801561001057600080fd5b50600436106100935760003560e01c806363de99be1161006657806363de99be146104a6578063666dfef1146104f45780636968411b1461079e5780637ee6c8f5146107bc578063aa2685b3146108f057610093565b806307973ccf146100985780630925603a146100b65780634a1d312c1461035d5780635e3d8eff146103ae575b600080fd5b6100a061093e565b6040518082815260200191505060405180910390f35b6100e2600480360360208110156100cc57600080fd5b8101908080359060200190929190505050610944565b604051808b73ffffffffffffffffffffffffffffffffffffffff1673ffffffffffffffffffffffffffffffffffffffff1681526020018a73ffffffffffffffffffffffffffffffffffffffff1673ffffffffffffffffffffffffffffffffffffffff1681526020018973ffffffffffffffffffffffffffffffffffffffff1673ffffffffffffffffffffffffffffffffffffffff168152602001888152602001806020018781526020018060200180602001806020018660038111156101a457fe5b60ff16815260200185810385528b818151815260200191508051906020019080838360005b838110156101e45780820151818401526020810190506101c9565b50505050905090810190601f1680156102115780820380516001836020036101000a031916815260200191505b50858103845289818151815260200191508051906020019080838360005b8381101561024a57808201518184015260208101905061022f565b50505050905090810190601f1680156102775780820380516001836020036101000a031916815260200191505b50858103835288818151815260200191508051906020019080838360005b838110156102b0578082015181840152602081019050610295565b50505050905090810190601f1680156102dd5780820380516001836020036101000a031916815260200191505b50858103825287818151815260200191508051906020019080838360005b838110156103165780820151818401526020810190506102fb565b50505050905090810190601f1680156103435780820380516001836020036101000a031916815260200191505b509e50505050505050505050505050505060405180910390f35b6103ac6004803603604081101561037357600080fd5b81019080803573ffffffffffffffffffffffffffffffffffffffff169060200190929190803560ff169060200190929190505050610c65565b005b6104a4600480360360808110156103c457600080fd5b81019080803573ffffffffffffffffffffffffffffffffffffffff169060200190929190803563ffffffff169060200190929190803560ff1690602001909291908035906020019064010000000081111561041e57600080fd5b82018360208201111561043057600080fd5b8035906020019184600183028401116401000000008311171561045257600080fd5b91908080601f016020809104026020016040519081016040528093929190818152602001838380828437600081840152601f19601f820116905080830192505050505050509192919290505050610ccc565b005b6104f2600480360360408110156104bc57600080fd5b8101908080359060200190929190803573ffffffffffffffffffffffffffffffffffffffff169060200190929190505050610f2d565b005b61079c600480360360c081101561050a57600080fd5b81019080803573ffffffffffffffffffffffffffffffffffffffff1690602001909291908035906020019064010000000081111561054757600080fd5b82018360208201111561055957600080fd5b8035906020019184600183028401116401000000008311171561057b57600080fd5b91908080601f016020809104026020016040519081016040528093929190818152602001838380828437600081840152601f19601f82011690508083019250505050505050919291929080359060200190929190803590602001906401000000008111156105e857600080fd5b8201836020820111156105fa57600080fd5b8035906020019184600183028401116401000000008311171561061c57600080fd5b91908080601f016020809104026020016040519081016040528093929190818152602001838380828437600081840152601f19601f8201169050808301925050505050505091929192908035906020019064010000000081111561067f57600080fd5b82018360208201111561069157600080fd5b803590602001918460018302840111640100000000831117156106b357600080fd5b91908080601f016020809104026020016040519081016040528093929190818152602001838380828437600081840152601f19601f8201169050808301925050505050505091929192908035906020019064010000000081111561071657600080fd5b82018360208201111561072857600080fd5b8035906020019184600183028401116401000000008311171561074a57600080fd5b91908080601f016020809104026020016040519081016040528093929190818152602001838380828437600081840152601f19601f820116905080830192505050505050509192919290505050610fbe565b005b6107a6611150565b6040518082815260200191505060405180910390f35b6107fe600480360360208110156107d257600080fd5b81019080803573ffffffffffffffffffffffffffffffffffffffff169060200190929190505050611156565b604051808781526020018673ffffffffffffffffffffffffffffffffffffffff1673ffffffffffffffffffffffffffffffffffffffff1681526020018563ffffffff1663ffffffff16815260200184600281111561085857fe5b60ff16815260200183600181111561086c57fe5b60ff16815260200180602001828103825283818151815260200191508051906020019080838360005b838110156108b0578082015181840152602081019050610895565b50505050905090810190601f1680156108dd5780820380516001836020036101000a031916815260200191505b5097505050505050505060405180910390f35b61093c6004803603604081101561090657600080fd5b8101908080359060200190929190803573ffffffffffffffffffffffffffffffffffffffff169060200190929190505050611274565b005b60015481565b60026020528060005260406000206000915090508060000160009054906101000a900473ffffffffffffffffffffffffffffffffffffffff16908060010160009054906101000a900473ffffffffffffffffffffffffffffffffffffffff16908060020160009054906101000a900473ffffffffffffffffffffffffffffffffffffffff1690806003015490806004018054600181600116156101000203166002900480601f016020809104026020016040519081016040528092919081815260200182805460018160011615610100020316600290048015610a685780601f10610a3d57610100808354040283529160200191610a68565b820191906000526020600020905b815481529060010190602001808311610a4b57829003601f168201915b505050505090806005015490806006018054600181600116156101000203166002900480601f016020809104026020016040519081016040528092919081815260200182805460018160011615610100020316600290048015610b0c5780601f10610ae157610100808354040283529160200191610b0c565b820191906000526020600020905b815481529060010190602001808311610aef57829003601f168201915b505050505090806007018054600181600116156101000203166002900480601f016020809104026020016040519081016040528092919081815260200182805460018160011615610100020316600290048015610baa5780601f10610b7f57610100808354040283529160200191610baa565b820191906000526020600020905b815481529060010190602001808311610b8d57829003601f168201915b505050505090806008018054600181600116156101000203166002900480601f016020809104026020016040519081016040528092919081815260200182805460018160011615610100020316600290048015610c485780601f10610c1d57610100808354040283529160200191610c48565b820191906000526020600020905b815481529060010190602001808311610c2b57829003601f168201915b5050505050908060090160009054906101000a900460ff1690508a565b80600360008473ffffffffffffffffffffffffffffffffffffffff1673ffffffffffffffffffffffffffffffffffffffff16815260200190815260200160002060010160196101000a81548160ff02191690836001811115610cc357fe5b02179055505050565b600160008154809291906001019190505550600154600360008673ffffffffffffffffffffffffffffffffffffffff1673ffffffffffffffffffffffffffffffffffffffff1681526020019081526020016000206000018190555083600360008673ffffffffffffffffffffffffffffffffffffffff1673ffffffffffffffffffffffffffffffffffffffff16815260200190815260200160002060010160006101000a81548173ffffffffffffffffffffffffffffffffffffffff021916908373ffffffffffffffffffffffffffffffffffffffff16021790555082600360008673ffffffffffffffffffffffffffffffffffffffff1673ffffffffffffffffffffffffffffffffffffffff16815260200190815260200160002060010160146101000a81548163ffffffff021916908363ffffffff16021790555081600360008673ffffffffffffffffffffffffffffffffffffffff1673ffffffffffffffffffffffffffffffffffffffff16815260200190815260200160002060010160186101000a81548160ff02191690836002811115610e6757fe5b021790555080600360008673ffffffffffffffffffffffffffffffffffffffff1673ffffffffffffffffffffffffffffffffffffffff1681526020019081526020016000206002019080519060200190610ec2929190611304565b506001600360008673ffffffffffffffffffffffffffffffffffffffff1673ffffffffffffffffffffffffffffffffffffffff16815260200190815260200160002060010160196101000a81548160ff02191690836001811115610f2257fe5b021790555050505050565b806002600084815260200190815260200160002060000160006101000a81548173ffffffffffffffffffffffffffffffffffffffff021916908373ffffffffffffffffffffffffffffffffffffffff16021790555060016002600084815260200190815260200160002060090160006101000a81548160ff02191690836003811115610fb557fe5b02179055505050565b600080815480929190600101919050555060005460026000805481526020019081526020016000206003018190555085600260008054815260200190815260200160002060010160006101000a81548173ffffffffffffffffffffffffffffffffffffffff021916908373ffffffffffffffffffffffffffffffffffffffff160217905550846002600080548152602001908152602001600020600401908051906020019061106e929190611304565b508360026000805481526020019081526020016000206005018190555082600260008054815260200190815260200160002060060190805190602001906110b6929190611304565b5081600260008054815260200190815260200160002060070190805190602001906110e2929190611304565b50806002600080548152602001908152602001600020600801908051906020019061110e929190611304565b506000600260008054815260200190815260200160002060090160006101000a81548160ff0219169083600381111561114357fe5b0217905550505050505050565b60005481565b60036020528060005260406000206000915090508060000154908060010160009054906101000a900473ffffffffffffffffffffffffffffffffffffffff16908060010160149054906101000a900463ffffffff16908060010160189054906101000a900460ff16908060010160199054906101000a900460ff1690806002018054600181600116156101000203166002900480601f01602080910402602001604051908101604052809291908181526020018280546001816001161561010002031660029004801561126a5780601f1061123f5761010080835404028352916020019161126a565b820191906000526020600020905b81548152906001019060200180831161124d57829003601f168201915b5050505050905086565b806002600084815260200190815260200160002060020160006101000a81548173ffffffffffffffffffffffffffffffffffffffff021916908373ffffffffffffffffffffffffffffffffffffffff160217905550600280600084815260200190815260200160002060090160006101000a81548160ff021916908360038111156112fb57fe5b02179055505050565b828054600181600116156101000203166002900490600052602060002090601f016020900481019282601f1061134557805160ff1916838001178555611373565b82800160010185558215611373579182015b82811115611372578251825591602001919060010190611357565b5b5090506113809190611384565b5090565b6113a691905b808211156113a257600081600090555060010161138a565b5090565b9056fea265627a7a72315820ec16fa60783feacfc4f4715e91bd009bd3f3d115a992c791d695546d6e56619264736f6c63430005100032",
  "source": "pragma solidity ^0.5.16;\n\n//3 different pages open up and 3 different SC are deployed based on userType.\n//the 3 contracts talk to each other.\n\ncontract DEat\n{\n  //enum Dir {UP, LEFT, DOWN, RIGHT} corresponds to uint8 values 0, 1, 2 and 3.\n\n  enum Phase { Available, Open, Delivering, Complete }\n  enum UserType { Producer, Consumer, Delivery }\n  enum Authenticated { V, NV } \n\n  struct User\n  {\n      uint uid;\n      address user;\n      uint32 aadhar;\n\n      UserType user_type;\n      Authenticated status;\n\n      string location;\n  }\n\n  struct Food\n  {\n    \n    address consumer;\n    address payable producer;\n    address payable delivery;\n\n    uint id;\n\n    string location;\n\n    uint price;\n\n    string food_name;\n    string food_desc;\n    string food_img_link;\n\n    Phase phase;\n  }\n\n//string public userType;\n  uint public foodCount = 0;\n  uint public userCount = 0;\n  mapping(uint => Food) public id2Food;\n  mapping(address => User) public Uadd2User;\n  \n//   constructor() public\n//   {\n//     addFood(0x86478E3dFcfffBbc9B22Ba2B0dF9A439C097a08f, 'Cake - 400g' , 12, 999988887777);\n//     addFood(0x08144aa4D7faa7e965596094d9E4745B946A5Dc9, 'Noodles - 500g', 41, 999988887773);\n//     addFood(0x1Bdd0248b4aD5a27Da5E3482bFA4F5D15473bC23, 'Bisi Bela Bath - 1kg', 31, 9999);\n//   }\n\n//   function addUser()\n//   {\n\n//   }\n\n  function createUser(address payable _user, uint32 _aadhar, UserType _user_type,\n  string memory _location) public\n  {\n    userCount++;\n    Uadd2User[_user].uid = userCount;\n    Uadd2User[_user].user = _user;\n    Uadd2User[_user].aadhar = _aadhar;\n    Uadd2User[_user].user_type = _user_type;\n    Uadd2User[_user].location = _location;\n    Uadd2User[_user].status = Authenticated.NV;\n  }\n\n  function validateUser(address payable _user, Authenticated _status) public\n  {\n    Uadd2User[_user].status = _status;\n  }\n\n  function addFood(address payable _producer,  string memory _location, uint _price,\n  string memory _food_name, string memory _food_desc, string memory _food_img_link) public\n  {\n    foodCount++;\n    id2Food[foodCount].id = foodCount;\n    id2Food[foodCount].producer = _producer;\n    id2Food[foodCount].location = _location;\n    id2Food[foodCount].price = _price;\n    id2Food[foodCount].food_name = _food_name;\n    id2Food[foodCount].food_desc = _food_desc;\n    id2Food[foodCount].food_img_link = _food_img_link;\n    id2Food[foodCount].phase = Phase.Available; \n  }\n\n  function orderFood(uint _id, address _consumer) public\n  {\n    id2Food[_id].consumer = _consumer;\n    id2Food[_id].phase = Phase.Open;\n  }\n\n  function deliverFood(uint _id, address payable _delivery) public\n  {\n    id2Food[_id].delivery = _delivery;\n    id2Food[_id].phase = Phase.Delivering;\n  }\n\n  // this is called when the consumer and delivery both click on seperate buttons \n  // 1. id2Food[_id].phase = Phase.Complete\n  // 2. Trigger Escrow Contracts between C2D, C2P.\n\n  //function completeFood(uint _id)\n//   {\n//       id2Food[_id].phase = Phase.Complete;\n//   }\n}\n",
  "sourcePath": "/Users/varun/Desktop/Deat/contracts/DEat.sol",
  "compiler": {
    "name": "solc",
    "version": "0.5.16+commit.9c3226ce.Emscripten.clang"
  },
  "schemaVersion": "3.4.3",
  "updatedAt": "2022-04-21T08:00:58.526Z",
  "networkType": "ethereum",
  "devdoc": {
    "methods": {}
  },
  "userdoc": {
    "methods": {}
  }
}