{
  "contractName": "DEat",
  "abi": [
    {
      "constant": true,
      "inputs": [
        {
          "internalType": "address",
          "name": "",
          "type": "address"
        }
      ],
      "name": "Consumer2ID",
      "outputs": [
        {
          "internalType": "uint256",
          "name": "",
          "type": "uint256"
        }
      ],
      "payable": false,
      "stateMutability": "view",
      "type": "function"
    },
    {
      "constant": true,
      "inputs": [
        {
          "internalType": "address",
          "name": "",
          "type": "address"
        }
      ],
      "name": "Uadd2User",
      "outputs": [
        {
          "internalType": "uint256",
          "name": "uid",
          "type": "uint256"
        },
        {
          "internalType": "address",
          "name": "user",
          "type": "address"
        },
        {
          "internalType": "uint32",
          "name": "aadhar",
          "type": "uint32"
        },
        {
          "internalType": "enum DEat.UserType",
          "name": "user_type",
          "type": "uint8"
        },
        {
          "internalType": "enum DEat.Authenticated",
          "name": "status",
          "type": "uint8"
        },
        {
          "internalType": "string",
          "name": "location",
          "type": "string"
        }
      ],
      "payable": false,
      "stateMutability": "view",
      "type": "function"
    },
    {
      "constant": true,
      "inputs": [],
      "name": "foodCount",
      "outputs": [
        {
          "internalType": "uint256",
          "name": "",
          "type": "uint256"
        }
      ],
      "payable": false,
      "stateMutability": "view",
      "type": "function"
    },
    {
      "constant": true,
      "inputs": [
        {
          "internalType": "uint256",
          "name": "",
          "type": "uint256"
        }
      ],
      "name": "id2Food",
      "outputs": [
        {
          "internalType": "address",
          "name": "consumer",
          "type": "address"
        },
        {
          "internalType": "address payable",
          "name": "producer",
          "type": "address"
        },
        {
          "internalType": "address payable",
          "name": "delivery",
          "type": "address"
        },
        {
          "internalType": "uint256",
          "name": "id",
          "type": "uint256"
        },
        {
          "internalType": "string",
          "name": "location",
          "type": "string"
        },
        {
          "internalType": "uint256",
          "name": "price",
          "type": "uint256"
        },
        {
          "internalType": "string",
          "name": "food_name",
          "type": "string"
        },
        {
          "internalType": "string",
          "name": "food_desc",
          "type": "string"
        },
        {
          "internalType": "string",
          "name": "food_img_link",
          "type": "string"
        },
        {
          "internalType": "enum DEat.Phase",
          "name": "phase",
          "type": "uint8"
        }
      ],
      "payable": false,
      "stateMutability": "view",
      "type": "function"
    },
    {
      "constant": true,
      "inputs": [],
      "name": "userCount",
      "outputs": [
        {
          "internalType": "uint256",
          "name": "",
          "type": "uint256"
        }
      ],
      "payable": false,
      "stateMutability": "view",
      "type": "function"
    },
    {
      "constant": false,
      "inputs": [
        {
          "internalType": "address payable",
          "name": "_user",
          "type": "address"
        },
        {
          "internalType": "uint32",
          "name": "_aadhar",
          "type": "uint32"
        },
        {
          "internalType": "enum DEat.UserType",
          "name": "_user_type",
          "type": "uint8"
        },
        {
          "internalType": "string",
          "name": "_location",
          "type": "string"
        }
      ],
      "name": "createUser",
      "outputs": [],
      "payable": false,
      "stateMutability": "nonpayable",
      "type": "function"
    },
    {
      "constant": false,
      "inputs": [
        {
          "internalType": "address payable",
          "name": "_user",
          "type": "address"
        },
        {
          "internalType": "enum DEat.Authenticated",
          "name": "_status",
          "type": "uint8"
        }
      ],
      "name": "validateUser",
      "outputs": [],
      "payable": false,
      "stateMutability": "nonpayable",
      "type": "function"
    },
    {
      "constant": false,
      "inputs": [
        {
          "internalType": "address",
          "name": "_consumer",
          "type": "address"
        },
        {
          "internalType": "uint256",
          "name": "_id",
          "type": "uint256"
        }
      ],
      "name": "setConsumer2ID",
      "outputs": [],
      "payable": false,
      "stateMutability": "nonpayable",
      "type": "function"
    },
    {
      "constant": false,
      "inputs": [
        {
          "internalType": "address payable",
          "name": "_producer",
          "type": "address"
        },
        {
          "internalType": "string",
          "name": "_location",
          "type": "string"
        },
        {
          "internalType": "uint256",
          "name": "_price",
          "type": "uint256"
        },
        {
          "internalType": "string",
          "name": "_food_name",
          "type": "string"
        },
        {
          "internalType": "string",
          "name": "_food_desc",
          "type": "string"
        },
        {
          "internalType": "string",
          "name": "_food_img_link",
          "type": "string"
        }
      ],
      "name": "addFood",
      "outputs": [],
      "payable": false,
      "stateMutability": "nonpayable",
      "type": "function"
    },
    {
      "constant": false,
      "inputs": [
        {
          "internalType": "uint256",
          "name": "_id",
          "type": "uint256"
        },
        {
          "internalType": "address",
          "name": "_consumer",
          "type": "address"
        }
      ],
      "name": "orderFood",
      "outputs": [],
      "payable": false,
      "stateMutability": "nonpayable",
      "type": "function"
    },
    {
      "constant": false,
      "inputs": [
        {
          "internalType": "uint256",
          "name": "_id",
          "type": "uint256"
        },
        {
          "internalType": "address payable",
          "name": "_delivery",
          "type": "address"
        }
      ],
      "name": "deliverFood",
      "outputs": [],
      "payable": false,
      "stateMutability": "nonpayable",
      "type": "function"
    },
    {
      "constant": false,
      "inputs": [
        {
          "internalType": "uint256",
          "name": "_id",
          "type": "uint256"
        }
      ],
      "name": "completeFood",
      "outputs": [],
      "payable": false,
      "stateMutability": "nonpayable",
      "type": "function"
    }
  ],
  "bytecode": "0x608060405260008055600060015534801561001957600080fd5b5061156e806100296000396000f3fe608060405234801561001057600080fd5b50600436106100b45760003560e01c8063666dfef111610071578063666dfef11461056d5780636968411b146108175780637ee6c8f514610835578063a599e0a514610969578063aa2685b314610997578063e445a1fd146109e5576100b4565b806307973ccf146100b95780630925603a146100d75780634a1d312c1461037e5780634e019d89146103cf5780635e3d8eff1461042757806363de99be1461051f575b600080fd5b6100c1610a33565b6040518082815260200191505060405180910390f35b610103600480360360208110156100ed57600080fd5b8101908080359060200190929190505050610a39565b604051808b73ffffffffffffffffffffffffffffffffffffffff1673ffffffffffffffffffffffffffffffffffffffff1681526020018a73ffffffffffffffffffffffffffffffffffffffff1673ffffffffffffffffffffffffffffffffffffffff1681526020018973ffffffffffffffffffffffffffffffffffffffff1673ffffffffffffffffffffffffffffffffffffffff168152602001888152602001806020018781526020018060200180602001806020018660038111156101c557fe5b60ff16815260200185810385528b818151815260200191508051906020019080838360005b838110156102055780820151818401526020810190506101ea565b50505050905090810190601f1680156102325780820380516001836020036101000a031916815260200191505b50858103845289818151815260200191508051906020019080838360005b8381101561026b578082015181840152602081019050610250565b50505050905090810190601f1680156102985780820380516001836020036101000a031916815260200191505b50858103835288818151815260200191508051906020019080838360005b838110156102d15780820151818401526020810190506102b6565b50505050905090810190601f1680156102fe5780820380516001836020036101000a031916815260200191505b50858103825287818151815260200191508051906020019080838360005b8381101561033757808201518184015260208101905061031c565b50505050905090810190601f1680156103645780820380516001836020036101000a031916815260200191505b509e50505050505050505050505050505060405180910390f35b6103cd6004803603604081101561039457600080fd5b81019080803573ffffffffffffffffffffffffffffffffffffffff169060200190929190803560ff169060200190929190505050610d5a565b005b610411600480360360208110156103e557600080fd5b81019080803573ffffffffffffffffffffffffffffffffffffffff169060200190929190505050610dc1565b6040518082815260200191505060405180910390f35b61051d6004803603608081101561043d57600080fd5b81019080803573ffffffffffffffffffffffffffffffffffffffff169060200190929190803563ffffffff169060200190929190803560ff1690602001909291908035906020019064010000000081111561049757600080fd5b8201836020820111156104a957600080fd5b803590602001918460018302840111640100000000831117156104cb57600080fd5b91908080601f016020809104026020016040519081016040528093929190818152602001838380828437600081840152601f19601f820116905080830192505050505050509192919290505050610dd9565b005b61056b6004803603604081101561053557600080fd5b8101908080359060200190929190803573ffffffffffffffffffffffffffffffffffffffff16906020019092919050505061103a565b005b610815600480360360c081101561058357600080fd5b81019080803573ffffffffffffffffffffffffffffffffffffffff169060200190929190803590602001906401000000008111156105c057600080fd5b8201836020820111156105d257600080fd5b803590602001918460018302840111640100000000831117156105f457600080fd5b91908080601f016020809104026020016040519081016040528093929190818152602001838380828437600081840152601f19601f820116905080830192505050505050509192919290803590602001909291908035906020019064010000000081111561066157600080fd5b82018360208201111561067357600080fd5b8035906020019184600183028401116401000000008311171561069557600080fd5b91908080601f016020809104026020016040519081016040528093929190818152602001838380828437600081840152601f19601f820116905080830192505050505050509192919290803590602001906401000000008111156106f857600080fd5b82018360208201111561070a57600080fd5b8035906020019184600183028401116401000000008311171561072c57600080fd5b91908080601f016020809104026020016040519081016040528093929190818152602001838380828437600081840152601f19601f8201169050808301925050505050505091929192908035906020019064010000000081111561078f57600080fd5b8201836020820111156107a157600080fd5b803590602001918460018302840111640100000000831117156107c357600080fd5b91908080601f016020809104026020016040519081016040528093929190818152602001838380828437600081840152601f19601f8201169050808301925050505050505091929192905050506110cb565b005b61081f61125d565b6040518082815260200191505060405180910390f35b6108776004803603602081101561084b57600080fd5b81019080803573ffffffffffffffffffffffffffffffffffffffff169060200190929190505050611263565b604051808781526020018673ffffffffffffffffffffffffffffffffffffffff1673ffffffffffffffffffffffffffffffffffffffff1681526020018563ffffffff1663ffffffff1681526020018460028111156108d157fe5b60ff1681526020018360018111156108e557fe5b60ff16815260200180602001828103825283818151815260200191508051906020019080838360005b8381101561092957808201518184015260208101905061090e565b50505050905090810190601f1680156109565780820380516001836020036101000a031916815260200191505b5097505050505050505060405180910390f35b6109956004803603602081101561097f57600080fd5b8101908080359060200190929190505050611381565b005b6109e3600480360360408110156109ad57600080fd5b8101908080359060200190929190803573ffffffffffffffffffffffffffffffffffffffff1690602001909291905050506113bc565b005b610a31600480360360408110156109fb57600080fd5b81019080803573ffffffffffffffffffffffffffffffffffffffff1690602001909291908035906020019092919050505061144c565b005b60015481565b60026020528060005260406000206000915090508060000160009054906101000a900473ffffffffffffffffffffffffffffffffffffffff16908060010160009054906101000a900473ffffffffffffffffffffffffffffffffffffffff16908060020160009054906101000a900473ffffffffffffffffffffffffffffffffffffffff1690806003015490806004018054600181600116156101000203166002900480601f016020809104026020016040519081016040528092919081815260200182805460018160011615610100020316600290048015610b5d5780601f10610b3257610100808354040283529160200191610b5d565b820191906000526020600020905b815481529060010190602001808311610b4057829003601f168201915b505050505090806005015490806006018054600181600116156101000203166002900480601f016020809104026020016040519081016040528092919081815260200182805460018160011615610100020316600290048015610c015780601f10610bd657610100808354040283529160200191610c01565b820191906000526020600020905b815481529060010190602001808311610be457829003601f168201915b505050505090806007018054600181600116156101000203166002900480601f016020809104026020016040519081016040528092919081815260200182805460018160011615610100020316600290048015610c9f5780601f10610c7457610100808354040283529160200191610c9f565b820191906000526020600020905b815481529060010190602001808311610c8257829003601f168201915b505050505090806008018054600181600116156101000203166002900480601f016020809104026020016040519081016040528092919081815260200182805460018160011615610100020316600290048015610d3d5780601f10610d1257610100808354040283529160200191610d3d565b820191906000526020600020905b815481529060010190602001808311610d2057829003601f168201915b5050505050908060090160009054906101000a900460ff1690508a565b80600360008473ffffffffffffffffffffffffffffffffffffffff1673ffffffffffffffffffffffffffffffffffffffff16815260200190815260200160002060010160196101000a81548160ff02191690836001811115610db857fe5b02179055505050565b60046020528060005260406000206000915090505481565b600160008154809291906001019190505550600154600360008673ffffffffffffffffffffffffffffffffffffffff1673ffffffffffffffffffffffffffffffffffffffff1681526020019081526020016000206000018190555083600360008673ffffffffffffffffffffffffffffffffffffffff1673ffffffffffffffffffffffffffffffffffffffff16815260200190815260200160002060010160006101000a81548173ffffffffffffffffffffffffffffffffffffffff021916908373ffffffffffffffffffffffffffffffffffffffff16021790555082600360008673ffffffffffffffffffffffffffffffffffffffff1673ffffffffffffffffffffffffffffffffffffffff16815260200190815260200160002060010160146101000a81548163ffffffff021916908363ffffffff16021790555081600360008673ffffffffffffffffffffffffffffffffffffffff1673ffffffffffffffffffffffffffffffffffffffff16815260200190815260200160002060010160186101000a81548160ff02191690836002811115610f7457fe5b021790555080600360008673ffffffffffffffffffffffffffffffffffffffff1673ffffffffffffffffffffffffffffffffffffffff1681526020019081526020016000206002019080519060200190610fcf929190611494565b506001600360008673ffffffffffffffffffffffffffffffffffffffff1673ffffffffffffffffffffffffffffffffffffffff16815260200190815260200160002060010160196101000a81548160ff0219169083600181111561102f57fe5b021790555050505050565b806002600084815260200190815260200160002060000160006101000a81548173ffffffffffffffffffffffffffffffffffffffff021916908373ffffffffffffffffffffffffffffffffffffffff16021790555060016002600084815260200190815260200160002060090160006101000a81548160ff021916908360038111156110c257fe5b02179055505050565b600080815480929190600101919050555060005460026000805481526020019081526020016000206003018190555085600260008054815260200190815260200160002060010160006101000a81548173ffffffffffffffffffffffffffffffffffffffff021916908373ffffffffffffffffffffffffffffffffffffffff160217905550846002600080548152602001908152602001600020600401908051906020019061117b929190611494565b508360026000805481526020019081526020016000206005018190555082600260008054815260200190815260200160002060060190805190602001906111c3929190611494565b5081600260008054815260200190815260200160002060070190805190602001906111ef929190611494565b50806002600080548152602001908152602001600020600801908051906020019061121b929190611494565b506000600260008054815260200190815260200160002060090160006101000a81548160ff0219169083600381111561125057fe5b0217905550505050505050565b60005481565b60036020528060005260406000206000915090508060000154908060010160009054906101000a900473ffffffffffffffffffffffffffffffffffffffff16908060010160149054906101000a900463ffffffff16908060010160189054906101000a900460ff16908060010160199054906101000a900460ff1690806002018054600181600116156101000203166002900480601f0160208091040260200160405190810160405280929190818152602001828054600181600116156101000203166002900480156113775780601f1061134c57610100808354040283529160200191611377565b820191906000526020600020905b81548152906001019060200180831161135a57829003601f168201915b5050505050905086565b60036002600083815260200190815260200160002060090160006101000a81548160ff021916908360038111156113b457fe5b021790555050565b806002600084815260200190815260200160002060020160006101000a81548173ffffffffffffffffffffffffffffffffffffffff021916908373ffffffffffffffffffffffffffffffffffffffff160217905550600280600084815260200190815260200160002060090160006101000a81548160ff0219169083600381111561144357fe5b02179055505050565b80600460008473ffffffffffffffffffffffffffffffffffffffff1673ffffffffffffffffffffffffffffffffffffffff168152602001908152602001600020819055505050565b828054600181600116156101000203166002900490600052602060002090601f016020900481019282601f106114d557805160ff1916838001178555611503565b82800160010185558215611503579182015b828111156115025782518255916020019190600101906114e7565b5b5090506115109190611514565b5090565b61153691905b8082111561153257600081600090555060010161151a565b5090565b9056fea265627a7a72315820a38ff929448e8321b60b24fffae3c57662389c4b8cbe841731563f458157497f64736f6c63430005100032",
  "source": "pragma solidity ^0.5.16;\n\n//3 different pages open up and 3 different SC are deployed based on userType.\n//the 3 contracts talk to each other.\n\ncontract DEat\n{\n  //enum Dir {UP, LEFT, DOWN, RIGHT} corresponds to uint8 values 0, 1, 2 and 3.\n\n  enum Phase { Available, Open, Delivering, Complete }\n  enum UserType { Producer, Consumer, Delivery }\n  enum Authenticated { V, NV } \n\n  struct User\n  {\n      uint uid;\n      address user;\n      uint32 aadhar;\n\n      UserType user_type;\n      Authenticated status;\n\n      string location;\n  }\n\n  struct Food\n  {\n    \n    address consumer;\n    address payable producer;\n    address payable delivery;\n\n    uint id;\n\n    string location;\n\n    uint price;\n\n    string food_name;\n    string food_desc;\n    string food_img_link;\n\n    Phase phase;\n  }\n\n//string public userType;\n  uint public foodCount = 0;\n  uint public userCount = 0;\n  mapping(uint => Food) public id2Food;\n  mapping(address => User) public Uadd2User;\n  mapping(address => uint) public Consumer2ID;\n  \n//   constructor() public\n//   {\n//     addFood(0x86478E3dFcfffBbc9B22Ba2B0dF9A439C097a08f, 'Cake - 400g' , 12, 999988887777);\n//     addFood(0x08144aa4D7faa7e965596094d9E4745B946A5Dc9, 'Noodles - 500g', 41, 999988887773);\n//     addFood(0x1Bdd0248b4aD5a27Da5E3482bFA4F5D15473bC23, 'Bisi Bela Bath - 1kg', 31, 9999);\n//   }\n\n//   function addUser()\n//   {\n\n//   }\n\n  function createUser(address payable _user, uint32 _aadhar, UserType _user_type,\n  string memory _location) public\n  {\n    userCount++;\n    Uadd2User[_user].uid = userCount;\n    Uadd2User[_user].user = _user;\n    Uadd2User[_user].aadhar = _aadhar;\n    Uadd2User[_user].user_type = _user_type;\n    Uadd2User[_user].location = _location;\n    Uadd2User[_user].status = Authenticated.NV;\n  }\n\n  function validateUser(address payable _user, Authenticated _status) public\n  {\n    Uadd2User[_user].status = _status;\n  }\n\n  function setConsumer2ID(address _consumer, uint _id) public\n  {\n    Consumer2ID[_consumer] = _id;\n  }\n\n  function addFood(address payable _producer,  string memory _location, uint _price,\n  string memory _food_name, string memory _food_desc, string memory _food_img_link) public\n  {\n    foodCount++;\n    id2Food[foodCount].id = foodCount;\n    id2Food[foodCount].producer = _producer;\n    id2Food[foodCount].location = _location;\n    id2Food[foodCount].price = _price;\n    id2Food[foodCount].food_name = _food_name;\n    id2Food[foodCount].food_desc = _food_desc;\n    id2Food[foodCount].food_img_link = _food_img_link;\n    id2Food[foodCount].phase = Phase.Available; \n  }\n\n  function orderFood(uint _id, address _consumer) public\n  {\n    id2Food[_id].consumer = _consumer;\n    id2Food[_id].phase = Phase.Open;\n  }\n\n  function deliverFood(uint _id, address payable _delivery) public\n  {\n    id2Food[_id].delivery = _delivery;\n    id2Food[_id].phase = Phase.Delivering;\n  }\n\n  // this is called when the consumer and delivery both click on seperate buttons \n  // 1. id2Food[_id].phase = Phase.Complete\n  // 2. Trigger Escrow Contracts between C2D, C2P.\n\n  function completeFood(uint _id) public\n   {\n      id2Food[_id].phase = Phase.Complete;\n   }\n}\n",
  "sourcePath": "/Users/varun/Desktop/Deat/contracts/DEat.sol",
  "compiler": {
    "name": "solc",
    "version": "0.5.16+commit.9c3226ce.Emscripten.clang"
  },
  "schemaVersion": "3.4.3",
  "updatedAt": "2022-04-21T10:00:34.881Z",
  "networkType": "ethereum",
  "devdoc": {
    "methods": {}
  },
  "userdoc": {
    "methods": {}
  }
}