{
  "contractName": "DEat",
  "abi": [
    {
      "constant": true,
      "inputs": [
        {
          "internalType": "address",
          "name": "",
          "type": "address"
        }
      ],
      "name": "Consumer2ID",
      "outputs": [
        {
          "internalType": "uint256",
          "name": "",
          "type": "uint256"
        }
      ],
      "payable": false,
      "stateMutability": "view",
      "type": "function"
    },
    {
      "constant": true,
      "inputs": [
        {
          "internalType": "address",
          "name": "",
          "type": "address"
        }
      ],
      "name": "Producer2Food",
      "outputs": [
        {
          "internalType": "address",
          "name": "consumer",
          "type": "address"
        },
        {
          "internalType": "address payable",
          "name": "producer",
          "type": "address"
        },
        {
          "internalType": "address payable",
          "name": "delivery",
          "type": "address"
        },
        {
          "internalType": "uint256",
          "name": "id",
          "type": "uint256"
        },
        {
          "internalType": "string",
          "name": "location",
          "type": "string"
        },
        {
          "internalType": "uint256",
          "name": "price",
          "type": "uint256"
        },
        {
          "internalType": "string",
          "name": "food_name",
          "type": "string"
        },
        {
          "internalType": "string",
          "name": "food_desc",
          "type": "string"
        },
        {
          "internalType": "string",
          "name": "food_img_link",
          "type": "string"
        },
        {
          "internalType": "enum DEat.Phase",
          "name": "phase",
          "type": "uint8"
        }
      ],
      "payable": false,
      "stateMutability": "view",
      "type": "function"
    },
    {
      "constant": true,
      "inputs": [
        {
          "internalType": "address",
          "name": "",
          "type": "address"
        }
      ],
      "name": "Uadd2User",
      "outputs": [
        {
          "internalType": "uint256",
          "name": "uid",
          "type": "uint256"
        },
        {
          "internalType": "address",
          "name": "user",
          "type": "address"
        },
        {
          "internalType": "uint32",
          "name": "aadhar",
          "type": "uint32"
        },
        {
          "internalType": "enum DEat.UserType",
          "name": "user_type",
          "type": "uint8"
        },
        {
          "internalType": "enum DEat.Authenticated",
          "name": "status",
          "type": "uint8"
        },
        {
          "internalType": "string",
          "name": "location",
          "type": "string"
        }
      ],
      "payable": false,
      "stateMutability": "view",
      "type": "function"
    },
    {
      "constant": true,
      "inputs": [
        {
          "internalType": "uint256",
          "name": "",
          "type": "uint256"
        }
      ],
      "name": "Uid2User",
      "outputs": [
        {
          "internalType": "uint256",
          "name": "uid",
          "type": "uint256"
        },
        {
          "internalType": "address",
          "name": "user",
          "type": "address"
        },
        {
          "internalType": "uint32",
          "name": "aadhar",
          "type": "uint32"
        },
        {
          "internalType": "enum DEat.UserType",
          "name": "user_type",
          "type": "uint8"
        },
        {
          "internalType": "enum DEat.Authenticated",
          "name": "status",
          "type": "uint8"
        },
        {
          "internalType": "string",
          "name": "location",
          "type": "string"
        }
      ],
      "payable": false,
      "stateMutability": "view",
      "type": "function"
    },
    {
      "constant": true,
      "inputs": [],
      "name": "foodCount",
      "outputs": [
        {
          "internalType": "uint256",
          "name": "",
          "type": "uint256"
        }
      ],
      "payable": false,
      "stateMutability": "view",
      "type": "function"
    },
    {
      "constant": true,
      "inputs": [
        {
          "internalType": "uint256",
          "name": "",
          "type": "uint256"
        }
      ],
      "name": "id2Food",
      "outputs": [
        {
          "internalType": "address",
          "name": "consumer",
          "type": "address"
        },
        {
          "internalType": "address payable",
          "name": "producer",
          "type": "address"
        },
        {
          "internalType": "address payable",
          "name": "delivery",
          "type": "address"
        },
        {
          "internalType": "uint256",
          "name": "id",
          "type": "uint256"
        },
        {
          "internalType": "string",
          "name": "location",
          "type": "string"
        },
        {
          "internalType": "uint256",
          "name": "price",
          "type": "uint256"
        },
        {
          "internalType": "string",
          "name": "food_name",
          "type": "string"
        },
        {
          "internalType": "string",
          "name": "food_desc",
          "type": "string"
        },
        {
          "internalType": "string",
          "name": "food_img_link",
          "type": "string"
        },
        {
          "internalType": "enum DEat.Phase",
          "name": "phase",
          "type": "uint8"
        }
      ],
      "payable": false,
      "stateMutability": "view",
      "type": "function"
    },
    {
      "constant": true,
      "inputs": [],
      "name": "userCount",
      "outputs": [
        {
          "internalType": "uint256",
          "name": "",
          "type": "uint256"
        }
      ],
      "payable": false,
      "stateMutability": "view",
      "type": "function"
    },
    {
      "constant": false,
      "inputs": [
        {
          "internalType": "address payable",
          "name": "_user",
          "type": "address"
        },
        {
          "internalType": "uint32",
          "name": "_aadhar",
          "type": "uint32"
        },
        {
          "internalType": "enum DEat.UserType",
          "name": "_user_type",
          "type": "uint8"
        },
        {
          "internalType": "string",
          "name": "_location",
          "type": "string"
        }
      ],
      "name": "createUser",
      "outputs": [],
      "payable": false,
      "stateMutability": "nonpayable",
      "type": "function"
    },
    {
      "constant": false,
      "inputs": [
        {
          "internalType": "address payable",
          "name": "_user",
          "type": "address"
        },
        {
          "internalType": "enum DEat.Authenticated",
          "name": "_status",
          "type": "uint8"
        }
      ],
      "name": "validateUser",
      "outputs": [],
      "payable": false,
      "stateMutability": "nonpayable",
      "type": "function"
    },
    {
      "constant": false,
      "inputs": [
        {
          "internalType": "address",
          "name": "_consumer",
          "type": "address"
        },
        {
          "internalType": "uint256",
          "name": "_id",
          "type": "uint256"
        }
      ],
      "name": "setConsumer2ID",
      "outputs": [],
      "payable": false,
      "stateMutability": "nonpayable",
      "type": "function"
    },
    {
      "constant": false,
      "inputs": [
        {
          "internalType": "address payable",
          "name": "_producer",
          "type": "address"
        },
        {
          "internalType": "string",
          "name": "_location",
          "type": "string"
        },
        {
          "internalType": "uint256",
          "name": "_price",
          "type": "uint256"
        },
        {
          "internalType": "string",
          "name": "_food_name",
          "type": "string"
        },
        {
          "internalType": "string",
          "name": "_food_desc",
          "type": "string"
        },
        {
          "internalType": "string",
          "name": "_food_img_link",
          "type": "string"
        }
      ],
      "name": "addFood",
      "outputs": [],
      "payable": false,
      "stateMutability": "nonpayable",
      "type": "function"
    },
    {
      "constant": false,
      "inputs": [
        {
          "internalType": "uint256",
          "name": "_id",
          "type": "uint256"
        },
        {
          "internalType": "address",
          "name": "_consumer",
          "type": "address"
        },
        {
          "internalType": "string",
          "name": "_location",
          "type": "string"
        }
      ],
      "name": "orderFood",
      "outputs": [],
      "payable": false,
      "stateMutability": "nonpayable",
      "type": "function"
    },
    {
      "constant": false,
      "inputs": [
        {
          "internalType": "uint256",
          "name": "_id",
          "type": "uint256"
        },
        {
          "internalType": "address payable",
          "name": "_delivery",
          "type": "address"
        }
      ],
      "name": "deliverFood",
      "outputs": [],
      "payable": false,
      "stateMutability": "nonpayable",
      "type": "function"
    },
    {
      "constant": false,
      "inputs": [
        {
          "internalType": "uint256",
          "name": "_id",
          "type": "uint256"
        }
      ],
      "name": "completeFood",
      "outputs": [],
      "payable": false,
      "stateMutability": "nonpayable",
      "type": "function"
    }
  ],
  "bytecode": "0x608060405260008055600060015534801561001957600080fd5b50612310806100296000396000f3fe608060405234801561001057600080fd5b50600436106100ea5760003560e01c8063666dfef11161008c5780638823f702116100665780638823f70214610b54578063a599e0a514610e11578063aa2685b314610e3f578063e445a1fd14610e8d576100ea565b8063666dfef1146107585780636968411b14610a025780637ee6c8f514610a20576100ea565b8063452f23cd116100c8578063452f23cd146104995780634a1d312c146105b75780634e019d89146106085780635e3d8eff14610660576100ea565b806307973ccf146100ef5780630925603a1461010d578063345b54bd146103b4575b600080fd5b6100f7610edb565b6040518082815260200191505060405180910390f35b6101396004803603602081101561012357600080fd5b8101908080359060200190929190505050610ee1565b604051808b73ffffffffffffffffffffffffffffffffffffffff1673ffffffffffffffffffffffffffffffffffffffff1681526020018a73ffffffffffffffffffffffffffffffffffffffff1673ffffffffffffffffffffffffffffffffffffffff1681526020018973ffffffffffffffffffffffffffffffffffffffff1673ffffffffffffffffffffffffffffffffffffffff168152602001888152602001806020018781526020018060200180602001806020018660038111156101fb57fe5b60ff16815260200185810385528b818151815260200191508051906020019080838360005b8381101561023b578082015181840152602081019050610220565b50505050905090810190601f1680156102685780820380516001836020036101000a031916815260200191505b50858103845289818151815260200191508051906020019080838360005b838110156102a1578082015181840152602081019050610286565b50505050905090810190601f1680156102ce5780820380516001836020036101000a031916815260200191505b50858103835288818151815260200191508051906020019080838360005b838110156103075780820151818401526020810190506102ec565b50505050905090810190601f1680156103345780820380516001836020036101000a031916815260200191505b50858103825287818151815260200191508051906020019080838360005b8381101561036d578082015181840152602081019050610352565b50505050905090810190601f16801561039a5780820380516001836020036101000a031916815260200191505b509e50505050505050505050505050505060405180910390f35b610497600480360360608110156103ca57600080fd5b8101908080359060200190929190803573ffffffffffffffffffffffffffffffffffffffff1690602001909291908035906020019064010000000081111561041157600080fd5b82018360208201111561042357600080fd5b8035906020019184600183028401116401000000008311171561044557600080fd5b91908080601f016020809104026020016040519081016040528093929190818152602001838380828437600081840152601f19601f820116905080830192505050505050509192919290505050611202565b005b6104c5600480360360208110156104af57600080fd5b81019080803590602001909291905050506112bf565b604051808781526020018673ffffffffffffffffffffffffffffffffffffffff1673ffffffffffffffffffffffffffffffffffffffff1681526020018563ffffffff1663ffffffff16815260200184600281111561051f57fe5b60ff16815260200183600181111561053357fe5b60ff16815260200180602001828103825283818151815260200191508051906020019080838360005b8381101561057757808201518184015260208101905061055c565b50505050905090810190601f1680156105a45780820380516001836020036101000a031916815260200191505b5097505050505050505060405180910390f35b610606600480360360408110156105cd57600080fd5b81019080803573ffffffffffffffffffffffffffffffffffffffff169060200190929190803560ff1690602001909291905050506113dd565b005b61064a6004803603602081101561061e57600080fd5b81019080803573ffffffffffffffffffffffffffffffffffffffff169060200190929190505050611444565b6040518082815260200191505060405180910390f35b6107566004803603608081101561067657600080fd5b81019080803573ffffffffffffffffffffffffffffffffffffffff169060200190929190803563ffffffff169060200190929190803560ff169060200190929190803590602001906401000000008111156106d057600080fd5b8201836020820111156106e257600080fd5b8035906020019184600183028401116401000000008311171561070457600080fd5b91908080601f016020809104026020016040519081016040528093929190818152602001838380828437600081840152601f19601f82011690508083019250505050505050919291929050505061145c565b005b610a00600480360360c081101561076e57600080fd5b81019080803573ffffffffffffffffffffffffffffffffffffffff169060200190929190803590602001906401000000008111156107ab57600080fd5b8201836020820111156107bd57600080fd5b803590602001918460018302840111640100000000831117156107df57600080fd5b91908080601f016020809104026020016040519081016040528093929190818152602001838380828437600081840152601f19601f820116905080830192505050505050509192919290803590602001909291908035906020019064010000000081111561084c57600080fd5b82018360208201111561085e57600080fd5b8035906020019184600183028401116401000000008311171561088057600080fd5b91908080601f016020809104026020016040519081016040528093929190818152602001838380828437600081840152601f19601f820116905080830192505050505050509192919290803590602001906401000000008111156108e357600080fd5b8201836020820111156108f557600080fd5b8035906020019184600183028401116401000000008311171561091757600080fd5b91908080601f016020809104026020016040519081016040528093929190818152602001838380828437600081840152601f19601f8201169050808301925050505050505091929192908035906020019064010000000081111561097a57600080fd5b82018360208201111561098c57600080fd5b803590602001918460018302840111640100000000831117156109ae57600080fd5b91908080601f016020809104026020016040519081016040528093929190818152602001838380828437600081840152601f19601f820116905080830192505050505050509192919290505050611850565b005b610a0a611c57565b6040518082815260200191505060405180910390f35b610a6260048036036020811015610a3657600080fd5b81019080803573ffffffffffffffffffffffffffffffffffffffff169060200190929190505050611c5d565b604051808781526020018673ffffffffffffffffffffffffffffffffffffffff1673ffffffffffffffffffffffffffffffffffffffff1681526020018563ffffffff1663ffffffff168152602001846002811115610abc57fe5b60ff168152602001836001811115610ad057fe5b60ff16815260200180602001828103825283818151815260200191508051906020019080838360005b83811015610b14578082015181840152602081019050610af9565b50505050905090810190601f168015610b415780820380516001836020036101000a031916815260200191505b5097505050505050505060405180910390f35b610b9660048036036020811015610b6a57600080fd5b81019080803573ffffffffffffffffffffffffffffffffffffffff169060200190929190505050611d7b565b604051808b73ffffffffffffffffffffffffffffffffffffffff1673ffffffffffffffffffffffffffffffffffffffff1681526020018a73ffffffffffffffffffffffffffffffffffffffff1673ffffffffffffffffffffffffffffffffffffffff1681526020018973ffffffffffffffffffffffffffffffffffffffff1673ffffffffffffffffffffffffffffffffffffffff16815260200188815260200180602001878152602001806020018060200180602001866003811115610c5857fe5b60ff16815260200185810385528b818151815260200191508051906020019080838360005b83811015610c98578082015181840152602081019050610c7d565b50505050905090810190601f168015610cc55780820380516001836020036101000a031916815260200191505b50858103845289818151815260200191508051906020019080838360005b83811015610cfe578082015181840152602081019050610ce3565b50505050905090810190601f168015610d2b5780820380516001836020036101000a031916815260200191505b50858103835288818151815260200191508051906020019080838360005b83811015610d64578082015181840152602081019050610d49565b50505050905090810190601f168015610d915780820380516001836020036101000a031916815260200191505b50858103825287818151815260200191508051906020019080838360005b83811015610dca578082015181840152602081019050610daf565b50505050905090810190601f168015610df75780820380516001836020036101000a031916815260200191505b509e50505050505050505050505050505060405180910390f35b610e3d60048036036020811015610e2757600080fd5b810190808035906020019092919050505061209c565b005b610e8b60048036036040811015610e5557600080fd5b8101908080359060200190929190803573ffffffffffffffffffffffffffffffffffffffff1690602001909291905050506120d7565b005b610ed960048036036040811015610ea357600080fd5b81019080803573ffffffffffffffffffffffffffffffffffffffff16906020019092919080359060200190929190505050612167565b005b60015481565b60026020528060005260406000206000915090508060000160009054906101000a900473ffffffffffffffffffffffffffffffffffffffff16908060010160009054906101000a900473ffffffffffffffffffffffffffffffffffffffff16908060020160009054906101000a900473ffffffffffffffffffffffffffffffffffffffff1690806003015490806004018054600181600116156101000203166002900480601f0160208091040260200160405190810160405280929190818152602001828054600181600116156101000203166002900480156110055780601f10610fda57610100808354040283529160200191611005565b820191906000526020600020905b815481529060010190602001808311610fe857829003601f168201915b505050505090806005015490806006018054600181600116156101000203166002900480601f0160208091040260200160405190810160405280929190818152602001828054600181600116156101000203166002900480156110a95780601f1061107e576101008083540402835291602001916110a9565b820191906000526020600020905b81548152906001019060200180831161108c57829003601f168201915b505050505090806007018054600181600116156101000203166002900480601f0160208091040260200160405190810160405280929190818152602001828054600181600116156101000203166002900480156111475780601f1061111c57610100808354040283529160200191611147565b820191906000526020600020905b81548152906001019060200180831161112a57829003601f168201915b505050505090806008018054600181600116156101000203166002900480601f0160208091040260200160405190810160405280929190818152602001828054600181600116156101000203166002900480156111e55780601f106111ba576101008083540402835291602001916111e5565b820191906000526020600020905b8154815290600101906020018083116111c857829003601f168201915b5050505050908060090160009054906101000a900460ff1690508a565b8060026000858152602001908152602001600020600401908051906020019061122c9291906121af565b50816002600085815260200190815260200160002060000160006101000a81548173ffffffffffffffffffffffffffffffffffffffff021916908373ffffffffffffffffffffffffffffffffffffffff16021790555060016002600085815260200190815260200160002060090160006101000a81548160ff021916908360038111156112b557fe5b0217905550505050565b60036020528060005260406000206000915090508060000154908060010160009054906101000a900473ffffffffffffffffffffffffffffffffffffffff16908060010160149054906101000a900463ffffffff16908060010160189054906101000a900460ff16908060010160199054906101000a900460ff1690806002018054600181600116156101000203166002900480601f0160208091040260200160405190810160405280929190818152602001828054600181600116156101000203166002900480156113d35780601f106113a8576101008083540402835291602001916113d3565b820191906000526020600020905b8154815290600101906020018083116113b657829003601f168201915b5050505050905086565b80600460008473ffffffffffffffffffffffffffffffffffffffff1673ffffffffffffffffffffffffffffffffffffffff16815260200190815260200160002060010160196101000a81548160ff0219169083600181111561143b57fe5b02179055505050565b60056020528060005260406000206000915090505481565b600160008154809291906001019190505550600460008573ffffffffffffffffffffffffffffffffffffffff1673ffffffffffffffffffffffffffffffffffffffff168152602001908152602001600020600360006001548152602001908152602001600020600082015481600001556001820160009054906101000a900473ffffffffffffffffffffffffffffffffffffffff168160010160006101000a81548173ffffffffffffffffffffffffffffffffffffffff021916908373ffffffffffffffffffffffffffffffffffffffff1602179055506001820160149054906101000a900463ffffffff168160010160146101000a81548163ffffffff021916908363ffffffff1602179055506001820160189054906101000a900460ff168160010160186101000a81548160ff0219169083600281111561159b57fe5b02179055506001820160199054906101000a900460ff168160010160196101000a81548160ff021916908360018111156115d157fe5b0217905550600282018160020190805460018160011615610100020316600290046115fd92919061222f565b50905050600154600460008673ffffffffffffffffffffffffffffffffffffffff1673ffffffffffffffffffffffffffffffffffffffff1681526020019081526020016000206000018190555083600460008673ffffffffffffffffffffffffffffffffffffffff1673ffffffffffffffffffffffffffffffffffffffff16815260200190815260200160002060010160006101000a81548173ffffffffffffffffffffffffffffffffffffffff021916908373ffffffffffffffffffffffffffffffffffffffff16021790555082600460008673ffffffffffffffffffffffffffffffffffffffff1673ffffffffffffffffffffffffffffffffffffffff16815260200190815260200160002060010160146101000a81548163ffffffff021916908363ffffffff16021790555081600460008673ffffffffffffffffffffffffffffffffffffffff1673ffffffffffffffffffffffffffffffffffffffff16815260200190815260200160002060010160186101000a81548160ff0219169083600281111561178a57fe5b021790555080600460008673ffffffffffffffffffffffffffffffffffffffff1673ffffffffffffffffffffffffffffffffffffffff16815260200190815260200160002060020190805190602001906117e59291906121af565b506001600460008673ffffffffffffffffffffffffffffffffffffffff1673ffffffffffffffffffffffffffffffffffffffff16815260200190815260200160002060010160196101000a81548160ff0219169083600181111561184557fe5b021790555050505050565b60008081548092919060010191905055506002600080548152602001908152602001600020600660008873ffffffffffffffffffffffffffffffffffffffff1673ffffffffffffffffffffffffffffffffffffffff1681526020019081526020016000206000820160009054906101000a900473ffffffffffffffffffffffffffffffffffffffff168160000160006101000a81548173ffffffffffffffffffffffffffffffffffffffff021916908373ffffffffffffffffffffffffffffffffffffffff1602179055506001820160009054906101000a900473ffffffffffffffffffffffffffffffffffffffff168160010160006101000a81548173ffffffffffffffffffffffffffffffffffffffff021916908373ffffffffffffffffffffffffffffffffffffffff1602179055506002820160009054906101000a900473ffffffffffffffffffffffffffffffffffffffff168160020160006101000a81548173ffffffffffffffffffffffffffffffffffffffff021916908373ffffffffffffffffffffffffffffffffffffffff1602179055506003820154816003015560048201816004019080546001816001161561010002031660029004611a1a92919061222f565b506005820154816005015560068201816006019080546001816001161561010002031660029004611a4c92919061222f565b5060078201816007019080546001816001161561010002031660029004611a7492919061222f565b5060088201816008019080546001816001161561010002031660029004611a9c92919061222f565b506009820160009054906101000a900460ff168160090160006101000a81548160ff02191690836003811115611ace57fe5b021790555090505060005460026000805481526020019081526020016000206003018190555085600260008054815260200190815260200160002060010160006101000a81548173ffffffffffffffffffffffffffffffffffffffff021916908373ffffffffffffffffffffffffffffffffffffffff1602179055508460026000805481526020019081526020016000206004019080519060200190611b759291906121af565b50836002600080548152602001908152602001600020600501819055508260026000805481526020019081526020016000206006019080519060200190611bbd9291906121af565b508160026000805481526020019081526020016000206007019080519060200190611be99291906121af565b508060026000805481526020019081526020016000206008019080519060200190611c159291906121af565b506000600260008054815260200190815260200160002060090160006101000a81548160ff02191690836003811115611c4a57fe5b0217905550505050505050565b60005481565b60046020528060005260406000206000915090508060000154908060010160009054906101000a900473ffffffffffffffffffffffffffffffffffffffff16908060010160149054906101000a900463ffffffff16908060010160189054906101000a900460ff16908060010160199054906101000a900460ff1690806002018054600181600116156101000203166002900480601f016020809104026020016040519081016040528092919081815260200182805460018160011615610100020316600290048015611d715780601f10611d4657610100808354040283529160200191611d71565b820191906000526020600020905b815481529060010190602001808311611d5457829003601f168201915b5050505050905086565b60066020528060005260406000206000915090508060000160009054906101000a900473ffffffffffffffffffffffffffffffffffffffff16908060010160009054906101000a900473ffffffffffffffffffffffffffffffffffffffff16908060020160009054906101000a900473ffffffffffffffffffffffffffffffffffffffff1690806003015490806004018054600181600116156101000203166002900480601f016020809104026020016040519081016040528092919081815260200182805460018160011615610100020316600290048015611e9f5780601f10611e7457610100808354040283529160200191611e9f565b820191906000526020600020905b815481529060010190602001808311611e8257829003601f168201915b505050505090806005015490806006018054600181600116156101000203166002900480601f016020809104026020016040519081016040528092919081815260200182805460018160011615610100020316600290048015611f435780601f10611f1857610100808354040283529160200191611f43565b820191906000526020600020905b815481529060010190602001808311611f2657829003601f168201915b505050505090806007018054600181600116156101000203166002900480601f016020809104026020016040519081016040528092919081815260200182805460018160011615610100020316600290048015611fe15780601f10611fb657610100808354040283529160200191611fe1565b820191906000526020600020905b815481529060010190602001808311611fc457829003601f168201915b505050505090806008018054600181600116156101000203166002900480601f01602080910402602001604051908101604052809291908181526020018280546001816001161561010002031660029004801561207f5780601f106120545761010080835404028352916020019161207f565b820191906000526020600020905b81548152906001019060200180831161206257829003601f168201915b5050505050908060090160009054906101000a900460ff1690508a565b60036002600083815260200190815260200160002060090160006101000a81548160ff021916908360038111156120cf57fe5b021790555050565b806002600084815260200190815260200160002060020160006101000a81548173ffffffffffffffffffffffffffffffffffffffff021916908373ffffffffffffffffffffffffffffffffffffffff160217905550600280600084815260200190815260200160002060090160006101000a81548160ff0219169083600381111561215e57fe5b02179055505050565b80600560008473ffffffffffffffffffffffffffffffffffffffff1673ffffffffffffffffffffffffffffffffffffffff168152602001908152602001600020819055505050565b828054600181600116156101000203166002900490600052602060002090601f016020900481019282601f106121f057805160ff191683800117855561221e565b8280016001018555821561221e579182015b8281111561221d578251825591602001919060010190612202565b5b50905061222b91906122b6565b5090565b828054600181600116156101000203166002900490600052602060002090601f016020900481019282601f1061226857805485556122a5565b828001600101855582156122a557600052602060002091601f016020900482015b828111156122a4578254825591600101919060010190612289565b5b5090506122b291906122b6565b5090565b6122d891905b808211156122d45760008160009055506001016122bc565b5090565b9056fea265627a7a723158202e4deba7b257a1d0fdeceae00bdad1d5a9622c211e3ab579b3acc7850ea9ba3f64736f6c63430005100032",
  "source": "pragma solidity ^0.5.16;\n\n//3 different pages open up and 3 different SC are deployed based on userType.\n//the 3 contracts talk to each other.\n\ncontract DEat\n{\n  //enum Dir {UP, LEFT, DOWN, RIGHT} corresponds to uint8 values 0, 1, 2 and 3.\n\n  enum Phase { Available, Open, Delivering, Complete }\n  enum UserType { Producer, Consumer, Delivery }\n  enum Authenticated { V, NV } \n\n  struct User\n  {\n      uint uid;\n      address user;\n      uint32 aadhar;\n\n      UserType user_type;\n      Authenticated status;\n\n      string location;\n  }\n\n  struct Food\n  {\n    \n    address consumer;\n    address payable producer;\n    address payable delivery;\n\n    uint id;\n\n    string location;\n\n    uint price;\n\n    string food_name;\n    string food_desc;\n    string food_img_link;\n\n    Phase phase;\n  }\n\n//string public userType;\n  uint public foodCount = 0;\n  uint public userCount = 0;\n\n  mapping(uint => Food) public id2Food;\n  mapping(uint => User) public Uid2User;\n  mapping(address => User) public Uadd2User;\n  mapping(address => uint) public Consumer2ID;\n  mapping(address => Food) public Producer2Food;\n  \n//   constructor() public\n//   {\n//     addFood(0x86478E3dFcfffBbc9B22Ba2B0dF9A439C097a08f, 'Cake - 400g' , 12, 999988887777);\n//     addFood(0x08144aa4D7faa7e965596094d9E4745B946A5Dc9, 'Noodles - 500g', 41, 999988887773);\n//     addFood(0x1Bdd0248b4aD5a27Da5E3482bFA4F5D15473bC23, 'Bisi Bela Bath - 1kg', 31, 9999);\n//   }\n\n//   function addUser()\n//   {\n\n//   }\n\n   \n\n  function createUser(address payable _user, uint32 _aadhar, UserType _user_type,\n  string memory _location) public\n  {\n    userCount++;\n    Uid2User[userCount] = Uadd2User[_user];\n    Uadd2User[_user].uid = userCount;\n    Uadd2User[_user].user = _user;\n    Uadd2User[_user].aadhar = _aadhar;\n    Uadd2User[_user].user_type = _user_type;\n    Uadd2User[_user].location = _location;\n    Uadd2User[_user].status = Authenticated.NV;\n  }\n\n  function validateUser(address payable _user, Authenticated _status) public\n  {\n    Uadd2User[_user].status = _status;\n  }\n\n  function setConsumer2ID(address _consumer, uint _id) public\n  {\n    Consumer2ID[_consumer] = _id;\n  }\n\n  function addFood(address payable _producer,  string memory _location, uint _price,\n  string memory _food_name, string memory _food_desc, string memory _food_img_link) public\n  {\n    foodCount++;\n    Producer2Food[_producer] = id2Food[foodCount];\n    id2Food[foodCount].id = foodCount;\n    id2Food[foodCount].producer = _producer;\n    id2Food[foodCount].location = _location;\n    id2Food[foodCount].price = _price;\n    id2Food[foodCount].food_name = _food_name;\n    id2Food[foodCount].food_desc = _food_desc;\n    id2Food[foodCount].food_img_link = _food_img_link;\n    id2Food[foodCount].phase = Phase.Available; \n  }\n\n  function orderFood(uint _id, address _consumer, string memory _location) public\n  {\n    id2Food[_id].location = _location;\n    id2Food[_id].consumer = _consumer;\n    id2Food[_id].phase = Phase.Open;\n  }\n\n  function deliverFood(uint _id, address payable _delivery) public\n  {\n    id2Food[_id].delivery = _delivery;\n    id2Food[_id].phase = Phase.Delivering;\n  }\n\n  // this is called when the consumer and delivery both click on seperate buttons \n  // 1. id2Food[_id].phase = Phase.Complete\n  // 2. Trigger Escrow Contracts between C2D, C2P.\n\n  function completeFood(uint _id) public\n   {\n      id2Food[_id].phase = Phase.Complete;\n   }\n}\n",
  "sourcePath": "/Users/varun/Desktop/Deat/contracts/DEat.sol",
  "compiler": {
    "name": "solc",
    "version": "0.5.16+commit.9c3226ce.Emscripten.clang"
  },
  "schemaVersion": "3.4.3",
  "updatedAt": "2022-04-22T21:16:08.940Z",
  "networkType": "ethereum",
  "devdoc": {
    "methods": {}
  },
  "userdoc": {
    "methods": {}
  }
}