{
  "contractName": "DEat2",
  "abi": [
    {
      "constant": true,
      "inputs": [],
      "name": "foodCount",
      "outputs": [
        {
          "internalType": "uint256",
          "name": "",
          "type": "uint256"
        }
      ],
      "payable": false,
      "stateMutability": "view",
      "type": "function"
    },
    {
      "constant": true,
      "inputs": [
        {
          "internalType": "uint256",
          "name": "",
          "type": "uint256"
        }
      ],
      "name": "id2Food",
      "outputs": [
        {
          "internalType": "address",
          "name": "consumer",
          "type": "address"
        },
        {
          "internalType": "address payable",
          "name": "producer",
          "type": "address"
        },
        {
          "internalType": "address payable",
          "name": "delivery",
          "type": "address"
        },
        {
          "internalType": "uint256",
          "name": "id",
          "type": "uint256"
        },
        {
          "internalType": "string",
          "name": "location",
          "type": "string"
        },
        {
          "internalType": "uint256",
          "name": "price",
          "type": "uint256"
        },
        {
          "internalType": "string",
          "name": "food_name",
          "type": "string"
        },
        {
          "internalType": "string",
          "name": "food_desc",
          "type": "string"
        },
        {
          "internalType": "string",
          "name": "food_img_link",
          "type": "string"
        },
        {
          "internalType": "enum DEat2.Phase",
          "name": "phase",
          "type": "uint8"
        }
      ],
      "payable": false,
      "stateMutability": "view",
      "type": "function"
    },
    {
      "constant": false,
      "inputs": [
        {
          "internalType": "address payable",
          "name": "_producer",
          "type": "address"
        },
        {
          "internalType": "string",
          "name": "_location",
          "type": "string"
        },
        {
          "internalType": "uint256",
          "name": "_price",
          "type": "uint256"
        },
        {
          "internalType": "string",
          "name": "_food_name",
          "type": "string"
        },
        {
          "internalType": "string",
          "name": "_food_desc",
          "type": "string"
        },
        {
          "internalType": "string",
          "name": "_food_img_link",
          "type": "string"
        }
      ],
      "name": "addFood",
      "outputs": [],
      "payable": false,
      "stateMutability": "nonpayable",
      "type": "function"
    },
    {
      "constant": false,
      "inputs": [
        {
          "internalType": "uint256",
          "name": "_id",
          "type": "uint256"
        },
        {
          "internalType": "address",
          "name": "_consumer",
          "type": "address"
        }
      ],
      "name": "orderFood",
      "outputs": [],
      "payable": false,
      "stateMutability": "nonpayable",
      "type": "function"
    },
    {
      "constant": false,
      "inputs": [
        {
          "internalType": "uint256",
          "name": "_id",
          "type": "uint256"
        },
        {
          "internalType": "address payable",
          "name": "_delivery",
          "type": "address"
        }
      ],
      "name": "deliverFood",
      "outputs": [],
      "payable": false,
      "stateMutability": "nonpayable",
      "type": "function"
    }
  ],
  "bytecode": "0x60806040526000805534801561001457600080fd5b50610d1b806100246000396000f3fe608060405234801561001057600080fd5b50600436106100575760003560e01c80630925603a1461005c57806363de99be14610303578063666dfef1146103515780636968411b146105fb578063aa2685b314610619575b600080fd5b6100886004803603602081101561007257600080fd5b8101908080359060200190929190505050610667565b604051808b73ffffffffffffffffffffffffffffffffffffffff1673ffffffffffffffffffffffffffffffffffffffff1681526020018a73ffffffffffffffffffffffffffffffffffffffff1673ffffffffffffffffffffffffffffffffffffffff1681526020018973ffffffffffffffffffffffffffffffffffffffff1673ffffffffffffffffffffffffffffffffffffffff1681526020018881526020018060200187815260200180602001806020018060200186600381111561014a57fe5b60ff16815260200185810385528b818151815260200191508051906020019080838360005b8381101561018a57808201518184015260208101905061016f565b50505050905090810190601f1680156101b75780820380516001836020036101000a031916815260200191505b50858103845289818151815260200191508051906020019080838360005b838110156101f05780820151818401526020810190506101d5565b50505050905090810190601f16801561021d5780820380516001836020036101000a031916815260200191505b50858103835288818151815260200191508051906020019080838360005b8381101561025657808201518184015260208101905061023b565b50505050905090810190601f1680156102835780820380516001836020036101000a031916815260200191505b50858103825287818151815260200191508051906020019080838360005b838110156102bc5780820151818401526020810190506102a1565b50505050905090810190601f1680156102e95780820380516001836020036101000a031916815260200191505b509e50505050505050505050505050505060405180910390f35b61034f6004803603604081101561031957600080fd5b8101908080359060200190929190803573ffffffffffffffffffffffffffffffffffffffff169060200190929190505050610988565b005b6105f9600480360360c081101561036757600080fd5b81019080803573ffffffffffffffffffffffffffffffffffffffff169060200190929190803590602001906401000000008111156103a457600080fd5b8201836020820111156103b657600080fd5b803590602001918460018302840111640100000000831117156103d857600080fd5b91908080601f016020809104026020016040519081016040528093929190818152602001838380828437600081840152601f19601f820116905080830192505050505050509192919290803590602001909291908035906020019064010000000081111561044557600080fd5b82018360208201111561045757600080fd5b8035906020019184600183028401116401000000008311171561047957600080fd5b91908080601f016020809104026020016040519081016040528093929190818152602001838380828437600081840152601f19601f820116905080830192505050505050509192919290803590602001906401000000008111156104dc57600080fd5b8201836020820111156104ee57600080fd5b8035906020019184600183028401116401000000008311171561051057600080fd5b91908080601f016020809104026020016040519081016040528093929190818152602001838380828437600081840152601f19601f8201169050808301925050505050505091929192908035906020019064010000000081111561057357600080fd5b82018360208201111561058557600080fd5b803590602001918460018302840111640100000000831117156105a757600080fd5b91908080601f016020809104026020016040519081016040528093929190818152602001838380828437600081840152601f19601f820116905080830192505050505050509192919290505050610a18565b005b610603610baa565b6040518082815260200191505060405180910390f35b6106656004803603604081101561062f57600080fd5b8101908080359060200190929190803573ffffffffffffffffffffffffffffffffffffffff169060200190929190505050610bb0565b005b60016020528060005260406000206000915090508060000160009054906101000a900473ffffffffffffffffffffffffffffffffffffffff16908060010160009054906101000a900473ffffffffffffffffffffffffffffffffffffffff16908060020160009054906101000a900473ffffffffffffffffffffffffffffffffffffffff1690806003015490806004018054600181600116156101000203166002900480601f01602080910402602001604051908101604052809291908181526020018280546001816001161561010002031660029004801561078b5780601f106107605761010080835404028352916020019161078b565b820191906000526020600020905b81548152906001019060200180831161076e57829003601f168201915b505050505090806005015490806006018054600181600116156101000203166002900480601f01602080910402602001604051908101604052809291908181526020018280546001816001161561010002031660029004801561082f5780601f106108045761010080835404028352916020019161082f565b820191906000526020600020905b81548152906001019060200180831161081257829003601f168201915b505050505090806007018054600181600116156101000203166002900480601f0160208091040260200160405190810160405280929190818152602001828054600181600116156101000203166002900480156108cd5780601f106108a2576101008083540402835291602001916108cd565b820191906000526020600020905b8154815290600101906020018083116108b057829003601f168201915b505050505090806008018054600181600116156101000203166002900480601f01602080910402602001604051908101604052809291908181526020018280546001816001161561010002031660029004801561096b5780601f106109405761010080835404028352916020019161096b565b820191906000526020600020905b81548152906001019060200180831161094e57829003601f168201915b5050505050908060090160009054906101000a900460ff1690508a565b806001600084815260200190815260200160002060000160006101000a81548173ffffffffffffffffffffffffffffffffffffffff021916908373ffffffffffffffffffffffffffffffffffffffff160217905550600180600084815260200190815260200160002060090160006101000a81548160ff02191690836003811115610a0f57fe5b02179055505050565b600080815480929190600101919050555060005460016000805481526020019081526020016000206003018190555085600160008054815260200190815260200160002060010160006101000a81548173ffffffffffffffffffffffffffffffffffffffff021916908373ffffffffffffffffffffffffffffffffffffffff1602179055508460016000805481526020019081526020016000206004019080519060200190610ac8929190610c41565b50836001600080548152602001908152602001600020600501819055508260016000805481526020019081526020016000206006019080519060200190610b10929190610c41565b508160016000805481526020019081526020016000206007019080519060200190610b3c929190610c41565b508060016000805481526020019081526020016000206008019080519060200190610b68929190610c41565b506000600160008054815260200190815260200160002060090160006101000a81548160ff02191690836003811115610b9d57fe5b0217905550505050505050565b60005481565b806001600084815260200190815260200160002060020160006101000a81548173ffffffffffffffffffffffffffffffffffffffff021916908373ffffffffffffffffffffffffffffffffffffffff16021790555060026001600084815260200190815260200160002060090160006101000a81548160ff02191690836003811115610c3857fe5b02179055505050565b828054600181600116156101000203166002900490600052602060002090601f016020900481019282601f10610c8257805160ff1916838001178555610cb0565b82800160010185558215610cb0579182015b82811115610caf578251825591602001919060010190610c94565b5b509050610cbd9190610cc1565b5090565b610ce391905b80821115610cdf576000816000905550600101610cc7565b5090565b9056fea265627a7a723158200204572b43c5399ac3d73490bfa3b064966ca899a426a99a9f660dad56b54de164736f6c63430005100032",
  "source": "pragma solidity ^0.5.16;\n\n//3 different pages open up and 3 different SC are deployed based on userType.\n//the 3 contracts talk to each other.\n\ncontract DEat2\n{\n\n  enum Phase { Available, Open, Delivering, Complete }\n  enum UserType { Producer, Consumer, Delivery }\n  enum Authenticated { V, NV } \n\n  struct User\n  {\n      address user;\n      uint32 aadhar;\n\n      UserType user_type;\n      Authenticated status;\n\n      string location;\n  }\n\n  struct Food\n  {\n    \n    address consumer;\n    address payable producer;\n    address payable delivery;\n\n    uint id;\n\n    string location;\n\n    uint price;\n\n    string food_name;\n    string food_desc;\n    string food_img_link;\n\n    Phase phase;\n  }\n\n//string public userType;\n  uint public foodCount = 0;\n  mapping(uint => Food) public id2Food;\n//   constructor() public\n//   {\n//     addFood(0x86478E3dFcfffBbc9B22Ba2B0dF9A439C097a08f, 'Cake - 400g' , 12, 999988887777);\n//     addFood(0x08144aa4D7faa7e965596094d9E4745B946A5Dc9, 'Noodles - 500g', 41, 999988887773);\n//     addFood(0x1Bdd0248b4aD5a27Da5E3482bFA4F5D15473bC23, 'Bisi Bela Bath - 1kg', 31, 9999);\n//   }\n\n//   function addUser()\n//   {\n\n//   }\n  function addFood(address payable _producer,  string memory _location, uint _price,\n  string memory _food_name, string memory _food_desc, string memory _food_img_link) public\n  {\n    foodCount++;\n    id2Food[foodCount].id = foodCount;\n    id2Food[foodCount].producer = _producer;\n    id2Food[foodCount].location = _location;\n    id2Food[foodCount].price = _price;\n    id2Food[foodCount].food_name = _food_name;\n    id2Food[foodCount].food_desc = _food_desc;\n    id2Food[foodCount].food_img_link = _food_img_link;\n    id2Food[foodCount].phase = Phase.Available; \n  }\n\n  function orderFood(uint _id, address _consumer) public\n  {\n    id2Food[_id].consumer = _consumer;\n    id2Food[_id].phase = Phase.Open;\n  }\n\n  function deliverFood(uint _id, address payable _delivery) public\n  {\n    id2Food[_id].delivery = _delivery;\n    id2Food[_id].phase = Phase.Delivering;\n  }\n\n  // this is called when the consumer and delivery both click on seperate buttons \n  // 1. id2Food[_id].phase = Phase.Complete\n  // 2. Trigger Escrow Contracts between C2D, C2P.\n\n  //function completeFood(uint _id)\n//   {\n//       id2Food[_id].phase = Phase.Complete;\n//   }\n}\n",
  "sourcePath": "/Users/varun/Desktop/Deat/contracts/DEatcopy.sol",
  "compiler": {
    "name": "solc",
    "version": "0.5.16+commit.9c3226ce.Emscripten.clang"
  },
  "schemaVersion": "3.4.3",
  "updatedAt": "2022-04-19T05:17:33.813Z",
  "devdoc": {
    "methods": {}
  },
  "userdoc": {
    "methods": {}
  }
}