{
  "contractName": "DEat",
  "abi": [
    {
      "inputs": [],
      "payable": false,
      "stateMutability": "nonpayable",
      "type": "constructor"
    },
    {
      "constant": true,
      "inputs": [
        {
          "internalType": "uint256",
          "name": "",
          "type": "uint256"
        }
      ],
      "name": "C2I",
      "outputs": [
        {
          "internalType": "address",
          "name": "cook",
          "type": "address"
        },
        {
          "internalType": "uint256",
          "name": "id",
          "type": "uint256"
        },
        {
          "internalType": "string",
          "name": "food",
          "type": "string"
        },
        {
          "internalType": "string",
          "name": "loc",
          "type": "string"
        },
        {
          "internalType": "uint256",
          "name": "price",
          "type": "uint256"
        }
      ],
      "payable": false,
      "stateMutability": "view",
      "type": "function"
    },
    {
      "constant": true,
      "inputs": [],
      "name": "foodCount",
      "outputs": [
        {
          "internalType": "uint256",
          "name": "",
          "type": "uint256"
        }
      ],
      "payable": false,
      "stateMutability": "view",
      "type": "function"
    },
    {
      "constant": false,
      "inputs": [
        {
          "internalType": "address",
          "name": "_cook",
          "type": "address"
        },
        {
          "internalType": "string",
          "name": "_food",
          "type": "string"
        },
        {
          "internalType": "string",
          "name": "_loc",
          "type": "string"
        },
        {
          "internalType": "uint256",
          "name": "_price",
          "type": "uint256"
        }
      ],
      "name": "addFood",
      "outputs": [],
      "payable": false,
      "stateMutability": "nonpayable",
      "type": "function"
    }
  ],
  "bytecode": "0x60806040526000805534801561001457600080fd5b506100a67386478e3dfcfffbbc9b22ba2b0df9a439c097a08f6040518060400160405280600481526020017f43616b65000000000000000000000000000000000000000000000000000000008152506040518060400160405280600f81526020017f416e6e61204e6167617220456173740000000000000000000000000000000000815250600c6101cd60201b60201c565b6101377308144aa4d7faa7e965596094d9e4745b946a5dc96040518060400160405280600781526020017f4e6f6f646c6573000000000000000000000000000000000000000000000000008152506040518060400160405280600981526020017f506572756e67756469000000000000000000000000000000000000000000000081525060296101cd60201b60201c565b6101c8731bdd0248b4ad5a27da5e3482bfa4f5d15473bc236040518060400160405280600e81526020017f426973692042656c6120426174680000000000000000000000000000000000008152506040518060400160405280600581526020017f4164796172000000000000000000000000000000000000000000000000000000815250601f6101cd60201b60201c565b610371565b600080815480929190600101919050555060005460016000805481526020019081526020016000206001018190555083600160008054815260200190815260200160002060000160006101000a81548173ffffffffffffffffffffffffffffffffffffffff021916908373ffffffffffffffffffffffffffffffffffffffff160217905550826001600080548152602001908152602001600020600201908051906020019061027d9291906102cc565b5081600160008054815260200190815260200160002060030190805190602001906102a99291906102cc565b508060016000805481526020019081526020016000206004018190555050505050565b828054600181600116156101000203166002900490600052602060002090601f016020900481019282601f1061030d57805160ff191683800117855561033b565b8280016001018555821561033b579182015b8281111561033a57825182559160200191906001019061031f565b5b509050610348919061034c565b5090565b61036e91905b8082111561036a576000816000905550600101610352565b5090565b90565b610699806103806000396000f3fe608060405234801561001057600080fd5b50600436106100415760003560e01c80636968411b1461004657806371510a2214610064578063d32fb8db146101b8575b600080fd5b61004e610334565b6040518082815260200191505060405180910390f35b6100906004803603602081101561007a57600080fd5b810190808035906020019092919050505061033a565b604051808673ffffffffffffffffffffffffffffffffffffffff1673ffffffffffffffffffffffffffffffffffffffff1681526020018581526020018060200180602001848152602001838103835286818151815260200191508051906020019080838360005b838110156101125780820151818401526020810190506100f7565b50505050905090810190601f16801561013f5780820380516001836020036101000a031916815260200191505b50838103825285818151815260200191508051906020019080838360005b8381101561017857808201518184015260208101905061015d565b50505050905090810190601f1680156101a55780820380516001836020036101000a031916815260200191505b5097505050505050505060405180910390f35b610332600480360360808110156101ce57600080fd5b81019080803573ffffffffffffffffffffffffffffffffffffffff1690602001909291908035906020019064010000000081111561020b57600080fd5b82018360208201111561021d57600080fd5b8035906020019184600183028401116401000000008311171561023f57600080fd5b91908080601f016020809104026020016040519081016040528093929190818152602001838380828437600081840152601f19601f820116905080830192505050505050509192919290803590602001906401000000008111156102a257600080fd5b8201836020820111156102b457600080fd5b803590602001918460018302840111640100000000831117156102d657600080fd5b91908080601f016020809104026020016040519081016040528093929190818152602001838380828437600081840152601f19601f820116905080830192505050505050509192919290803590602001909291905050506104c0565b005b60005481565b60016020528060005260406000206000915090508060000160009054906101000a900473ffffffffffffffffffffffffffffffffffffffff1690806001015490806002018054600181600116156101000203166002900480601f0160208091040260200160405190810160405280929190818152602001828054600181600116156101000203166002900480156104125780601f106103e757610100808354040283529160200191610412565b820191906000526020600020905b8154815290600101906020018083116103f557829003601f168201915b505050505090806003018054600181600116156101000203166002900480601f0160208091040260200160405190810160405280929190818152602001828054600181600116156101000203166002900480156104b05780601f10610485576101008083540402835291602001916104b0565b820191906000526020600020905b81548152906001019060200180831161049357829003601f168201915b5050505050908060040154905085565b600080815480929190600101919050555060005460016000805481526020019081526020016000206001018190555083600160008054815260200190815260200160002060000160006101000a81548173ffffffffffffffffffffffffffffffffffffffff021916908373ffffffffffffffffffffffffffffffffffffffff16021790555082600160008054815260200190815260200160002060020190805190602001906105709291906105bf565b50816001600080548152602001908152602001600020600301908051906020019061059c9291906105bf565b508060016000805481526020019081526020016000206004018190555050505050565b828054600181600116156101000203166002900490600052602060002090601f016020900481019282601f1061060057805160ff191683800117855561062e565b8280016001018555821561062e579182015b8281111561062d578251825591602001919060010190610612565b5b50905061063b919061063f565b5090565b61066191905b8082111561065d576000816000905550600101610645565b5090565b9056fea265627a7a7231582084ea560058e6fcbadc239e3fcb067d3f31faa8e0d0cadb021c31f6796a29218e64736f6c63430005100032",
  "source": "pragma solidity ^0.5.16;\n\n//Address chosen using MetaMask.\n//userType = \"null\" initially.\n//1 form with 3 options initially, Deliver, Order, Sell\n//then userType set to whatever.\n\n//3 different pages open up and 3 different SC are deployed based on userType.\n//the 3 contracts talk to each other.\n\ncontract DEat\n{\n  struct Item\n  {\n    address cook;\n    uint id;\n    string food;\n    string loc;\n    uint price;\n  }\n\n  //string public userType;\n  uint public foodCount = 0;\n  mapping(uint => Item) public C2I;\n  //mapping(address => string) public UserType;\n\n  constructor() public\n  {\n    addFood(0x86478E3dFcfffBbc9B22Ba2B0dF9A439C097a08f, 'Cake', 'Anna Nagar East', 12);\n    addFood(0x08144aa4D7faa7e965596094d9E4745B946A5Dc9, 'Noodles', 'Perungudi', 41);\n    addFood(0x1Bdd0248b4aD5a27Da5E3482bFA4F5D15473bC23, 'Bisi Bela Bath', 'Adyar', 31);\n  }\n  function addFood(address _cook,  string memory _food, string memory _loc, uint _price) public\n  {\n    foodCount++;\n    C2I[foodCount].id = foodCount;\n    C2I[foodCount].cook = _cook;\n    C2I[foodCount].food = _food;\n    C2I[foodCount].loc = _loc;\n    C2I[foodCount].price = _price;\n  }\n\n\n  //form to browse the addresses\n  //each address has a\n  //function orderFood()\n}\n",
  "sourcePath": "/Users/varun/Desktop/DEat.com/contracts/DEat.sol",
  "compiler": {
    "name": "solc",
    "version": "0.5.16+commit.9c3226ce.Emscripten.clang"
  },
  "schemaVersion": "3.4.3",
  "updatedAt": "2021-11-04T01:50:01.224Z",
  "networkType": "ethereum",
  "devdoc": {
    "methods": {}
  },
  "userdoc": {
    "methods": {}
  }
}