{
  "contractName": "DEat",
  "abi": [
    {
      "constant": true,
      "inputs": [
        {
          "internalType": "address",
          "name": "",
          "type": "address"
        }
      ],
      "name": "Consumer2ID",
      "outputs": [
        {
          "internalType": "uint256",
          "name": "",
          "type": "uint256"
        }
      ],
      "payable": false,
      "stateMutability": "view",
      "type": "function"
    },
    {
      "constant": true,
      "inputs": [
        {
          "internalType": "address",
          "name": "",
          "type": "address"
        }
      ],
      "name": "Uadd2User",
      "outputs": [
        {
          "internalType": "uint256",
          "name": "uid",
          "type": "uint256"
        },
        {
          "internalType": "address",
          "name": "user",
          "type": "address"
        },
        {
          "internalType": "uint32",
          "name": "aadhar",
          "type": "uint32"
        },
        {
          "internalType": "enum DEat.UserType",
          "name": "user_type",
          "type": "uint8"
        },
        {
          "internalType": "enum DEat.Authenticated",
          "name": "status",
          "type": "uint8"
        },
        {
          "internalType": "string",
          "name": "location",
          "type": "string"
        }
      ],
      "payable": false,
      "stateMutability": "view",
      "type": "function"
    },
    {
      "constant": true,
      "inputs": [
        {
          "internalType": "uint256",
          "name": "",
          "type": "uint256"
        }
      ],
      "name": "Uid2User",
      "outputs": [
        {
          "internalType": "uint256",
          "name": "uid",
          "type": "uint256"
        },
        {
          "internalType": "address",
          "name": "user",
          "type": "address"
        },
        {
          "internalType": "uint32",
          "name": "aadhar",
          "type": "uint32"
        },
        {
          "internalType": "enum DEat.UserType",
          "name": "user_type",
          "type": "uint8"
        },
        {
          "internalType": "enum DEat.Authenticated",
          "name": "status",
          "type": "uint8"
        },
        {
          "internalType": "string",
          "name": "location",
          "type": "string"
        }
      ],
      "payable": false,
      "stateMutability": "view",
      "type": "function"
    },
    {
      "constant": true,
      "inputs": [],
      "name": "foodCount",
      "outputs": [
        {
          "internalType": "uint256",
          "name": "",
          "type": "uint256"
        }
      ],
      "payable": false,
      "stateMutability": "view",
      "type": "function"
    },
    {
      "constant": true,
      "inputs": [
        {
          "internalType": "uint256",
          "name": "",
          "type": "uint256"
        }
      ],
      "name": "id2Food",
      "outputs": [
        {
          "internalType": "address",
          "name": "consumer",
          "type": "address"
        },
        {
          "internalType": "address payable",
          "name": "producer",
          "type": "address"
        },
        {
          "internalType": "address payable",
          "name": "delivery",
          "type": "address"
        },
        {
          "internalType": "uint256",
          "name": "id",
          "type": "uint256"
        },
        {
          "internalType": "string",
          "name": "location",
          "type": "string"
        },
        {
          "internalType": "uint256",
          "name": "price",
          "type": "uint256"
        },
        {
          "internalType": "string",
          "name": "food_name",
          "type": "string"
        },
        {
          "internalType": "string",
          "name": "food_desc",
          "type": "string"
        },
        {
          "internalType": "string",
          "name": "food_img_link",
          "type": "string"
        },
        {
          "internalType": "enum DEat.Phase",
          "name": "phase",
          "type": "uint8"
        }
      ],
      "payable": false,
      "stateMutability": "view",
      "type": "function"
    },
    {
      "constant": true,
      "inputs": [],
      "name": "userCount",
      "outputs": [
        {
          "internalType": "uint256",
          "name": "",
          "type": "uint256"
        }
      ],
      "payable": false,
      "stateMutability": "view",
      "type": "function"
    },
    {
      "constant": false,
      "inputs": [
        {
          "internalType": "address payable",
          "name": "_user",
          "type": "address"
        },
        {
          "internalType": "uint32",
          "name": "_aadhar",
          "type": "uint32"
        },
        {
          "internalType": "enum DEat.UserType",
          "name": "_user_type",
          "type": "uint8"
        },
        {
          "internalType": "string",
          "name": "_location",
          "type": "string"
        }
      ],
      "name": "createUser",
      "outputs": [],
      "payable": false,
      "stateMutability": "nonpayable",
      "type": "function"
    },
    {
      "constant": false,
      "inputs": [
        {
          "internalType": "address payable",
          "name": "_user",
          "type": "address"
        },
        {
          "internalType": "enum DEat.Authenticated",
          "name": "_status",
          "type": "uint8"
        }
      ],
      "name": "validateUser",
      "outputs": [],
      "payable": false,
      "stateMutability": "nonpayable",
      "type": "function"
    },
    {
      "constant": false,
      "inputs": [
        {
          "internalType": "address",
          "name": "_consumer",
          "type": "address"
        },
        {
          "internalType": "uint256",
          "name": "_id",
          "type": "uint256"
        }
      ],
      "name": "setConsumer2ID",
      "outputs": [],
      "payable": false,
      "stateMutability": "nonpayable",
      "type": "function"
    },
    {
      "constant": false,
      "inputs": [
        {
          "internalType": "address payable",
          "name": "_producer",
          "type": "address"
        },
        {
          "internalType": "string",
          "name": "_location",
          "type": "string"
        },
        {
          "internalType": "uint256",
          "name": "_price",
          "type": "uint256"
        },
        {
          "internalType": "string",
          "name": "_food_name",
          "type": "string"
        },
        {
          "internalType": "string",
          "name": "_food_desc",
          "type": "string"
        },
        {
          "internalType": "string",
          "name": "_food_img_link",
          "type": "string"
        }
      ],
      "name": "addFood",
      "outputs": [],
      "payable": false,
      "stateMutability": "nonpayable",
      "type": "function"
    },
    {
      "constant": false,
      "inputs": [
        {
          "internalType": "uint256",
          "name": "_id",
          "type": "uint256"
        },
        {
          "internalType": "address",
          "name": "_consumer",
          "type": "address"
        },
        {
          "internalType": "string",
          "name": "_location",
          "type": "string"
        }
      ],
      "name": "orderFood",
      "outputs": [],
      "payable": false,
      "stateMutability": "nonpayable",
      "type": "function"
    },
    {
      "constant": false,
      "inputs": [
        {
          "internalType": "uint256",
          "name": "_id",
          "type": "uint256"
        },
        {
          "internalType": "address payable",
          "name": "_delivery",
          "type": "address"
        }
      ],
      "name": "deliverFood",
      "outputs": [],
      "payable": false,
      "stateMutability": "nonpayable",
      "type": "function"
    },
    {
      "constant": false,
      "inputs": [
        {
          "internalType": "uint256",
          "name": "_id",
          "type": "uint256"
        }
      ],
      "name": "completeFood",
      "outputs": [],
      "payable": false,
      "stateMutability": "nonpayable",
      "type": "function"
    }
  ],
  "bytecode": "0x608060405260008055600060015534801561001957600080fd5b50611aa2806100296000396000f3fe608060405234801561001057600080fd5b50600436106100cf5760003560e01c80635e3d8eff1161008c5780637ee6c8f5116100665780637ee6c8f514610a05578063a599e0a514610b39578063aa2685b314610b67578063e445a1fd14610bb5576100cf565b80635e3d8eff14610645578063666dfef11461073d5780636968411b146109e7576100cf565b806307973ccf146100d45780630925603a146100f2578063345b54bd14610399578063452f23cd1461047e5780634a1d312c1461059c5780634e019d89146105ed575b600080fd5b6100dc610c03565b6040518082815260200191505060405180910390f35b61011e6004803603602081101561010857600080fd5b8101908080359060200190929190505050610c09565b604051808b73ffffffffffffffffffffffffffffffffffffffff1673ffffffffffffffffffffffffffffffffffffffff1681526020018a73ffffffffffffffffffffffffffffffffffffffff1673ffffffffffffffffffffffffffffffffffffffff1681526020018973ffffffffffffffffffffffffffffffffffffffff1673ffffffffffffffffffffffffffffffffffffffff168152602001888152602001806020018781526020018060200180602001806020018660038111156101e057fe5b60ff16815260200185810385528b818151815260200191508051906020019080838360005b83811015610220578082015181840152602081019050610205565b50505050905090810190601f16801561024d5780820380516001836020036101000a031916815260200191505b50858103845289818151815260200191508051906020019080838360005b8381101561028657808201518184015260208101905061026b565b50505050905090810190601f1680156102b35780820380516001836020036101000a031916815260200191505b50858103835288818151815260200191508051906020019080838360005b838110156102ec5780820151818401526020810190506102d1565b50505050905090810190601f1680156103195780820380516001836020036101000a031916815260200191505b50858103825287818151815260200191508051906020019080838360005b83811015610352578082015181840152602081019050610337565b50505050905090810190601f16801561037f5780820380516001836020036101000a031916815260200191505b509e50505050505050505050505050505060405180910390f35b61047c600480360360608110156103af57600080fd5b8101908080359060200190929190803573ffffffffffffffffffffffffffffffffffffffff169060200190929190803590602001906401000000008111156103f657600080fd5b82018360208201111561040857600080fd5b8035906020019184600183028401116401000000008311171561042a57600080fd5b91908080601f016020809104026020016040519081016040528093929190818152602001838380828437600081840152601f19601f820116905080830192505050505050509192919290505050610f2a565b005b6104aa6004803603602081101561049457600080fd5b8101908080359060200190929190505050610fe7565b604051808781526020018673ffffffffffffffffffffffffffffffffffffffff1673ffffffffffffffffffffffffffffffffffffffff1681526020018563ffffffff1663ffffffff16815260200184600281111561050457fe5b60ff16815260200183600181111561051857fe5b60ff16815260200180602001828103825283818151815260200191508051906020019080838360005b8381101561055c578082015181840152602081019050610541565b50505050905090810190601f1680156105895780820380516001836020036101000a031916815260200191505b5097505050505050505060405180910390f35b6105eb600480360360408110156105b257600080fd5b81019080803573ffffffffffffffffffffffffffffffffffffffff169060200190929190803560ff169060200190929190505050611105565b005b61062f6004803603602081101561060357600080fd5b81019080803573ffffffffffffffffffffffffffffffffffffffff16906020019092919050505061116c565b6040518082815260200191505060405180910390f35b61073b6004803603608081101561065b57600080fd5b81019080803573ffffffffffffffffffffffffffffffffffffffff169060200190929190803563ffffffff169060200190929190803560ff169060200190929190803590602001906401000000008111156106b557600080fd5b8201836020820111156106c757600080fd5b803590602001918460018302840111640100000000831117156106e957600080fd5b91908080601f016020809104026020016040519081016040528093929190818152602001838380828437600081840152601f19601f820116905080830192505050505050509192919290505050611184565b005b6109e5600480360360c081101561075357600080fd5b81019080803573ffffffffffffffffffffffffffffffffffffffff1690602001909291908035906020019064010000000081111561079057600080fd5b8201836020820111156107a257600080fd5b803590602001918460018302840111640100000000831117156107c457600080fd5b91908080601f016020809104026020016040519081016040528093929190818152602001838380828437600081840152601f19601f820116905080830192505050505050509192919290803590602001909291908035906020019064010000000081111561083157600080fd5b82018360208201111561084357600080fd5b8035906020019184600183028401116401000000008311171561086557600080fd5b91908080601f016020809104026020016040519081016040528093929190818152602001838380828437600081840152601f19601f820116905080830192505050505050509192919290803590602001906401000000008111156108c857600080fd5b8201836020820111156108da57600080fd5b803590602001918460018302840111640100000000831117156108fc57600080fd5b91908080601f016020809104026020016040519081016040528093929190818152602001838380828437600081840152601f19601f8201169050808301925050505050505091929192908035906020019064010000000081111561095f57600080fd5b82018360208201111561097157600080fd5b8035906020019184600183028401116401000000008311171561099357600080fd5b91908080601f016020809104026020016040519081016040528093929190818152602001838380828437600081840152601f19601f820116905080830192505050505050509192919290505050611578565b005b6109ef61170a565b6040518082815260200191505060405180910390f35b610a4760048036036020811015610a1b57600080fd5b81019080803573ffffffffffffffffffffffffffffffffffffffff169060200190929190505050611710565b604051808781526020018673ffffffffffffffffffffffffffffffffffffffff1673ffffffffffffffffffffffffffffffffffffffff1681526020018563ffffffff1663ffffffff168152602001846002811115610aa157fe5b60ff168152602001836001811115610ab557fe5b60ff16815260200180602001828103825283818151815260200191508051906020019080838360005b83811015610af9578082015181840152602081019050610ade565b50505050905090810190601f168015610b265780820380516001836020036101000a031916815260200191505b5097505050505050505060405180910390f35b610b6560048036036020811015610b4f57600080fd5b810190808035906020019092919050505061182e565b005b610bb360048036036040811015610b7d57600080fd5b8101908080359060200190929190803573ffffffffffffffffffffffffffffffffffffffff169060200190929190505050611869565b005b610c0160048036036040811015610bcb57600080fd5b81019080803573ffffffffffffffffffffffffffffffffffffffff169060200190929190803590602001909291905050506118f9565b005b60015481565b60026020528060005260406000206000915090508060000160009054906101000a900473ffffffffffffffffffffffffffffffffffffffff16908060010160009054906101000a900473ffffffffffffffffffffffffffffffffffffffff16908060020160009054906101000a900473ffffffffffffffffffffffffffffffffffffffff1690806003015490806004018054600181600116156101000203166002900480601f016020809104026020016040519081016040528092919081815260200182805460018160011615610100020316600290048015610d2d5780601f10610d0257610100808354040283529160200191610d2d565b820191906000526020600020905b815481529060010190602001808311610d1057829003601f168201915b505050505090806005015490806006018054600181600116156101000203166002900480601f016020809104026020016040519081016040528092919081815260200182805460018160011615610100020316600290048015610dd15780601f10610da657610100808354040283529160200191610dd1565b820191906000526020600020905b815481529060010190602001808311610db457829003601f168201915b505050505090806007018054600181600116156101000203166002900480601f016020809104026020016040519081016040528092919081815260200182805460018160011615610100020316600290048015610e6f5780601f10610e4457610100808354040283529160200191610e6f565b820191906000526020600020905b815481529060010190602001808311610e5257829003601f168201915b505050505090806008018054600181600116156101000203166002900480601f016020809104026020016040519081016040528092919081815260200182805460018160011615610100020316600290048015610f0d5780601f10610ee257610100808354040283529160200191610f0d565b820191906000526020600020905b815481529060010190602001808311610ef057829003601f168201915b5050505050908060090160009054906101000a900460ff1690508a565b80600260008581526020019081526020016000206004019080519060200190610f54929190611941565b50816002600085815260200190815260200160002060000160006101000a81548173ffffffffffffffffffffffffffffffffffffffff021916908373ffffffffffffffffffffffffffffffffffffffff16021790555060016002600085815260200190815260200160002060090160006101000a81548160ff02191690836003811115610fdd57fe5b0217905550505050565b60036020528060005260406000206000915090508060000154908060010160009054906101000a900473ffffffffffffffffffffffffffffffffffffffff16908060010160149054906101000a900463ffffffff16908060010160189054906101000a900460ff16908060010160199054906101000a900460ff1690806002018054600181600116156101000203166002900480601f0160208091040260200160405190810160405280929190818152602001828054600181600116156101000203166002900480156110fb5780601f106110d0576101008083540402835291602001916110fb565b820191906000526020600020905b8154815290600101906020018083116110de57829003601f168201915b5050505050905086565b80600460008473ffffffffffffffffffffffffffffffffffffffff1673ffffffffffffffffffffffffffffffffffffffff16815260200190815260200160002060010160196101000a81548160ff0219169083600181111561116357fe5b02179055505050565b60056020528060005260406000206000915090505481565b600160008154809291906001019190505550600460008573ffffffffffffffffffffffffffffffffffffffff1673ffffffffffffffffffffffffffffffffffffffff168152602001908152602001600020600360006001548152602001908152602001600020600082015481600001556001820160009054906101000a900473ffffffffffffffffffffffffffffffffffffffff168160010160006101000a81548173ffffffffffffffffffffffffffffffffffffffff021916908373ffffffffffffffffffffffffffffffffffffffff1602179055506001820160149054906101000a900463ffffffff168160010160146101000a81548163ffffffff021916908363ffffffff1602179055506001820160189054906101000a900460ff168160010160186101000a81548160ff021916908360028111156112c357fe5b02179055506001820160199054906101000a900460ff168160010160196101000a81548160ff021916908360018111156112f957fe5b0217905550600282018160020190805460018160011615610100020316600290046113259291906119c1565b50905050600154600460008673ffffffffffffffffffffffffffffffffffffffff1673ffffffffffffffffffffffffffffffffffffffff1681526020019081526020016000206000018190555083600460008673ffffffffffffffffffffffffffffffffffffffff1673ffffffffffffffffffffffffffffffffffffffff16815260200190815260200160002060010160006101000a81548173ffffffffffffffffffffffffffffffffffffffff021916908373ffffffffffffffffffffffffffffffffffffffff16021790555082600460008673ffffffffffffffffffffffffffffffffffffffff1673ffffffffffffffffffffffffffffffffffffffff16815260200190815260200160002060010160146101000a81548163ffffffff021916908363ffffffff16021790555081600460008673ffffffffffffffffffffffffffffffffffffffff1673ffffffffffffffffffffffffffffffffffffffff16815260200190815260200160002060010160186101000a81548160ff021916908360028111156114b257fe5b021790555080600460008673ffffffffffffffffffffffffffffffffffffffff1673ffffffffffffffffffffffffffffffffffffffff168152602001908152602001600020600201908051906020019061150d929190611941565b506001600460008673ffffffffffffffffffffffffffffffffffffffff1673ffffffffffffffffffffffffffffffffffffffff16815260200190815260200160002060010160196101000a81548160ff0219169083600181111561156d57fe5b021790555050505050565b600080815480929190600101919050555060005460026000805481526020019081526020016000206003018190555085600260008054815260200190815260200160002060010160006101000a81548173ffffffffffffffffffffffffffffffffffffffff021916908373ffffffffffffffffffffffffffffffffffffffff1602179055508460026000805481526020019081526020016000206004019080519060200190611628929190611941565b50836002600080548152602001908152602001600020600501819055508260026000805481526020019081526020016000206006019080519060200190611670929190611941565b50816002600080548152602001908152602001600020600701908051906020019061169c929190611941565b5080600260008054815260200190815260200160002060080190805190602001906116c8929190611941565b506000600260008054815260200190815260200160002060090160006101000a81548160ff021916908360038111156116fd57fe5b0217905550505050505050565b60005481565b60046020528060005260406000206000915090508060000154908060010160009054906101000a900473ffffffffffffffffffffffffffffffffffffffff16908060010160149054906101000a900463ffffffff16908060010160189054906101000a900460ff16908060010160199054906101000a900460ff1690806002018054600181600116156101000203166002900480601f0160208091040260200160405190810160405280929190818152602001828054600181600116156101000203166002900480156118245780601f106117f957610100808354040283529160200191611824565b820191906000526020600020905b81548152906001019060200180831161180757829003601f168201915b5050505050905086565b60036002600083815260200190815260200160002060090160006101000a81548160ff0219169083600381111561186157fe5b021790555050565b806002600084815260200190815260200160002060020160006101000a81548173ffffffffffffffffffffffffffffffffffffffff021916908373ffffffffffffffffffffffffffffffffffffffff160217905550600280600084815260200190815260200160002060090160006101000a81548160ff021916908360038111156118f057fe5b02179055505050565b80600560008473ffffffffffffffffffffffffffffffffffffffff1673ffffffffffffffffffffffffffffffffffffffff168152602001908152602001600020819055505050565b828054600181600116156101000203166002900490600052602060002090601f016020900481019282601f1061198257805160ff19168380011785556119b0565b828001600101855582156119b0579182015b828111156119af578251825591602001919060010190611994565b5b5090506119bd9190611a48565b5090565b828054600181600116156101000203166002900490600052602060002090601f016020900481019282601f106119fa5780548555611a37565b82800160010185558215611a3757600052602060002091601f016020900482015b82811115611a36578254825591600101919060010190611a1b565b5b509050611a449190611a48565b5090565b611a6a91905b80821115611a66576000816000905550600101611a4e565b5090565b9056fea265627a7a723158200e1cee8d914d3297033e84bdbb24880af9da76b84389ea05a0e3a913b44d663b64736f6c63430005100032",
  "source": "pragma solidity ^0.5.16;\n\n//3 different pages open up and 3 different SC are deployed based on userType.\n//the 3 contracts talk to each other.\n\ncontract DEat\n{\n  //enum Dir {UP, LEFT, DOWN, RIGHT} corresponds to uint8 values 0, 1, 2 and 3.\n\n  enum Phase { Available, Open, Delivering, Complete }\n  enum UserType { Producer, Consumer, Delivery }\n  enum Authenticated { V, NV } \n\n  struct User\n  {\n      uint uid;\n      address user;\n      uint32 aadhar;\n\n      UserType user_type;\n      Authenticated status;\n\n      string location;\n  }\n\n  struct Food\n  {\n    \n    address consumer;\n    address payable producer;\n    address payable delivery;\n\n    uint id;\n\n    string location;\n\n    uint price;\n\n    string food_name;\n    string food_desc;\n    string food_img_link;\n\n    Phase phase;\n  }\n\n//string public userType;\n  uint public foodCount = 0;\n  uint public userCount = 0;\n\n  mapping(uint => Food) public id2Food;\n  mapping(uint => User) public Uid2User;\n  mapping(address => User) public Uadd2User;\n  mapping(address => uint) public Consumer2ID;\n  \n//   constructor() public\n//   {\n//     addFood(0x86478E3dFcfffBbc9B22Ba2B0dF9A439C097a08f, 'Cake - 400g' , 12, 999988887777);\n//     addFood(0x08144aa4D7faa7e965596094d9E4745B946A5Dc9, 'Noodles - 500g', 41, 999988887773);\n//     addFood(0x1Bdd0248b4aD5a27Da5E3482bFA4F5D15473bC23, 'Bisi Bela Bath - 1kg', 31, 9999);\n//   }\n\n//   function addUser()\n//   {\n\n//   }\n\n   \n\n  function createUser(address payable _user, uint32 _aadhar, UserType _user_type,\n  string memory _location) public\n  {\n    userCount++;\n    Uid2User[userCount] = Uadd2User[_user];\n    Uadd2User[_user].uid = userCount;\n    Uadd2User[_user].user = _user;\n    Uadd2User[_user].aadhar = _aadhar;\n    Uadd2User[_user].user_type = _user_type;\n    Uadd2User[_user].location = _location;\n    Uadd2User[_user].status = Authenticated.NV;\n  }\n\n  function validateUser(address payable _user, Authenticated _status) public\n  {\n    Uadd2User[_user].status = _status;\n  }\n\n  function setConsumer2ID(address _consumer, uint _id) public\n  {\n    Consumer2ID[_consumer] = _id;\n  }\n\n  function addFood(address payable _producer,  string memory _location, uint _price,\n  string memory _food_name, string memory _food_desc, string memory _food_img_link) public\n  {\n    foodCount++;\n    id2Food[foodCount].id = foodCount;\n    id2Food[foodCount].producer = _producer;\n    id2Food[foodCount].location = _location;\n    id2Food[foodCount].price = _price;\n    id2Food[foodCount].food_name = _food_name;\n    id2Food[foodCount].food_desc = _food_desc;\n    id2Food[foodCount].food_img_link = _food_img_link;\n    id2Food[foodCount].phase = Phase.Available; \n  }\n\n  function orderFood(uint _id, address _consumer, string memory _location) public\n  {\n    id2Food[_id].location = _location;\n    id2Food[_id].consumer = _consumer;\n    id2Food[_id].phase = Phase.Open;\n  }\n\n  function deliverFood(uint _id, address payable _delivery) public\n  {\n    id2Food[_id].delivery = _delivery;\n    id2Food[_id].phase = Phase.Delivering;\n  }\n\n  // this is called when the consumer and delivery both click on seperate buttons \n  // 1. id2Food[_id].phase = Phase.Complete\n  // 2. Trigger Escrow Contracts between C2D, C2P.\n\n  function completeFood(uint _id) public\n   {\n      id2Food[_id].phase = Phase.Complete;\n   }\n}\n",
  "sourcePath": "/Users/varun/Desktop/Deat/contracts/DEat.sol",
  "compiler": {
    "name": "solc",
    "version": "0.5.16+commit.9c3226ce.Emscripten.clang"
  },
  "schemaVersion": "3.4.3",
  "updatedAt": "2022-04-22T10:22:58.669Z",
  "networkType": "ethereum",
  "devdoc": {
    "methods": {}
  },
  "userdoc": {
    "methods": {}
  }
}