{
  "contractName": "DeliveryDeposit",
  "abi": [
    {
      "constant": true,
      "inputs": [],
      "name": "balance",
      "outputs": [
        {
          "internalType": "uint256",
          "name": "",
          "type": "uint256"
        }
      ],
      "payable": false,
      "stateMutability": "view",
      "type": "function"
    },
    {
      "constant": false,
      "inputs": [],
      "name": "d_security_deposit",
      "outputs": [],
      "payable": true,
      "stateMutability": "payable",
      "type": "function"
    },
    {
      "constant": true,
      "inputs": [],
      "name": "bal_of_dsd",
      "outputs": [
        {
          "internalType": "uint256",
          "name": "",
          "type": "uint256"
        }
      ],
      "payable": false,
      "stateMutability": "view",
      "type": "function"
    },
    {
      "constant": false,
      "inputs": [
        {
          "internalType": "uint256",
          "name": "amount",
          "type": "uint256"
        }
      ],
      "name": "reimburse_producer",
      "outputs": [],
      "payable": false,
      "stateMutability": "nonpayable",
      "type": "function"
    }
  ],
  "bytecode": "0x608060405234801561001057600080fd5b50610184806100206000396000f3fe60806040526004361061003f5760003560e01c806313af02421461004457806395ea02af1461006f578063b69ef8a8146100aa578063edde5306146100d5575b600080fd5b34801561005057600080fd5b506100596100df565b6040518082815260200191505060405180910390f35b34801561007b57600080fd5b506100a86004803603602081101561009257600080fd5b81019080803590602001909291905050506100e7565b005b3480156100b657600080fd5b506100bf61013c565b6040518082815260200191505060405180910390f35b6100dd610142565b005b600047905090565b3373ffffffffffffffffffffffffffffffffffffffff166108fc829081150290604051600060405180830381858888f1935050505015801561012d573d6000803e3d6000fd5b50806000540360008190555050565b60005481565b346000540160008190555056fea265627a7a723158203e1c2b55d39781426d7a78f35ed5b014306546eea0681ebfbeee09ce2636b1a264736f6c63430005100032",
  "source": "pragma solidity ^0.5.16;\n\ncontract DeliveryDeposit\n{\n    uint256 public balance;\n\n    function d_security_deposit() public payable\n    {\n        //delivery security deposit is sent\n        balance = balance + msg.value;\n    }\n\n    function bal_of_dsd() public view returns(uint256)\n    {\n        return address(this).balance;\n    }\n\n    function reimburse_producer(uint256 amount) public  \n    {\n        msg.sender.transfer(amount);\n        balance = balance - amount;\n\n    }\n\n}\n\n//when the delivery chooses in delivery.html, \n// this deposit contract is connected to the producer of the order's address",
  "sourcePath": "/Users/varun/Desktop/Deat/contracts/deliverydeposit.sol",
  "compiler": {
    "name": "solc",
    "version": "0.5.16+commit.9c3226ce.Emscripten.clang"
  },
  "schemaVersion": "3.4.3",
  "updatedAt": "2022-04-22T21:16:09.719Z",
  "networkType": "ethereum",
  "devdoc": {
    "methods": {}
  },
  "userdoc": {
    "methods": {}
  }
}