{
  "contractName": "EscrowC2D",
  "abi": [
    {
      "inputs": [],
      "payable": false,
      "stateMutability": "nonpayable",
      "type": "constructor"
    },
    {
      "constant": true,
      "inputs": [
        {
          "internalType": "address",
          "name": "",
          "type": "address"
        }
      ],
      "name": "deposits",
      "outputs": [
        {
          "internalType": "uint256",
          "name": "",
          "type": "uint256"
        }
      ],
      "payable": false,
      "stateMutability": "view",
      "type": "function"
    },
    {
      "constant": false,
      "inputs": [
        {
          "internalType": "address payable",
          "name": "_delivery",
          "type": "address"
        }
      ],
      "name": "c2d_deposit",
      "outputs": [],
      "payable": true,
      "stateMutability": "payable",
      "type": "function"
    },
    {
      "constant": false,
      "inputs": [
        {
          "internalType": "address payable",
          "name": "_delivery",
          "type": "address"
        }
      ],
      "name": "c2d_withdraw",
      "outputs": [],
      "payable": true,
      "stateMutability": "payable",
      "type": "function"
    }
  ],
  "bytecode": "0x608060405234801561001057600080fd5b50336000806101000a81548173ffffffffffffffffffffffffffffffffffffffff021916908373ffffffffffffffffffffffffffffffffffffffff1602179055506102d5806100606000396000f3fe6080604052600436106100345760003560e01c80635745eda8146100395780636928b0721461007d578063fc7e286d146100c1575b600080fd5b61007b6004803603602081101561004f57600080fd5b81019080803573ffffffffffffffffffffffffffffffffffffffff169060200190929190505050610126565b005b6100bf6004803603602081101561009357600080fd5b81019080803573ffffffffffffffffffffffffffffffffffffffff1690602001909291905050506101b4565b005b3480156100cd57600080fd5b50610110600480360360208110156100e457600080fd5b81019080803573ffffffffffffffffffffffffffffffffffffffff169060200190929190505050610288565b6040518082815260200191505060405180910390f35b600034905080600160008473ffffffffffffffffffffffffffffffffffffffff1673ffffffffffffffffffffffffffffffffffffffff1681526020019081526020016000205401600160008473ffffffffffffffffffffffffffffffffffffffff1673ffffffffffffffffffffffffffffffffffffffff168152602001908152602001600020819055505050565b6000600160008373ffffffffffffffffffffffffffffffffffffffff1673ffffffffffffffffffffffffffffffffffffffff1681526020019081526020016000205490506000600160008473ffffffffffffffffffffffffffffffffffffffff1673ffffffffffffffffffffffffffffffffffffffff168152602001908152602001600020819055508173ffffffffffffffffffffffffffffffffffffffff166108fc829081150290604051600060405180830381858888f19350505050158015610283573d6000803e3d6000fd5b505050565b6001602052806000526040600020600091509050548156fea265627a7a723158206c882f92f4850619f3fa0b929832f74b3e6d88621f01d8dd977198854822cda164736f6c63430005100032",
  "source": "pragma solidity ^0.5.16;\n\ncontract EscrowC2D \n{\n    address consumer;\n    mapping(address => uint256) public deposits;\n\n    // modifier onlyConsumer()\n    // {\n    //     require(msg.sender==consumer);\n    //     _;\n    // }\n\n    constructor() public\n    {\n        consumer = msg.sender;\n    }\n\n    function c2d_deposit(address payable _delivery) public payable\n    {\n        uint256 amount = msg.value;\n        deposits[_delivery] = deposits[_delivery]+amount;\n    }\n\n    function c2d_withdraw(address payable _delivery) public payable\n    {\n        uint256 payment = deposits[_delivery];\n        deposits[_delivery] = 0;\n        _delivery.transfer(payment);\n    }\n}",
  "sourcePath": "/Users/varun/Desktop/Deat/contracts/escrowc2d.sol",
  "compiler": {
    "name": "solc",
    "version": "0.5.16+commit.9c3226ce.Emscripten.clang"
  },
  "schemaVersion": "3.4.3",
  "updatedAt": "2022-04-21T08:00:59.138Z",
  "networkType": "ethereum",
  "devdoc": {
    "methods": {}
  },
  "userdoc": {
    "methods": {}
  }
}