{
  "contractName": "EscrowC2P",
  "abi": [
    {
      "inputs": [],
      "payable": false,
      "stateMutability": "nonpayable",
      "type": "constructor"
    },
    {
      "constant": true,
      "inputs": [
        {
          "internalType": "address",
          "name": "",
          "type": "address"
        }
      ],
      "name": "deposits",
      "outputs": [
        {
          "internalType": "uint256",
          "name": "",
          "type": "uint256"
        }
      ],
      "payable": false,
      "stateMutability": "view",
      "type": "function"
    },
    {
      "constant": false,
      "inputs": [
        {
          "internalType": "address payable",
          "name": "_producer",
          "type": "address"
        }
      ],
      "name": "c2p_deposit",
      "outputs": [],
      "payable": true,
      "stateMutability": "payable",
      "type": "function"
    },
    {
      "constant": false,
      "inputs": [
        {
          "internalType": "address payable",
          "name": "_producer",
          "type": "address"
        }
      ],
      "name": "c2p_withdraw",
      "outputs": [],
      "payable": true,
      "stateMutability": "payable",
      "type": "function"
    }
  ],
  "bytecode": "0x608060405234801561001057600080fd5b50336000806101000a81548173ffffffffffffffffffffffffffffffffffffffff021916908373ffffffffffffffffffffffffffffffffffffffff1602179055506102d5806100606000396000f3fe6080604052600436106100345760003560e01c8063e3b9a27914610039578063fc7e286d1461007d578063ff93ac51146100e2575b600080fd5b61007b6004803603602081101561004f57600080fd5b81019080803573ffffffffffffffffffffffffffffffffffffffff169060200190929190505050610126565b005b34801561008957600080fd5b506100cc600480360360208110156100a057600080fd5b81019080803573ffffffffffffffffffffffffffffffffffffffff1690602001909291905050506101b4565b6040518082815260200191505060405180910390f35b610124600480360360208110156100f857600080fd5b81019080803573ffffffffffffffffffffffffffffffffffffffff1690602001909291905050506101cc565b005b600034905080600160008473ffffffffffffffffffffffffffffffffffffffff1673ffffffffffffffffffffffffffffffffffffffff1681526020019081526020016000205401600160008473ffffffffffffffffffffffffffffffffffffffff1673ffffffffffffffffffffffffffffffffffffffff168152602001908152602001600020819055505050565b60016020528060005260406000206000915090505481565b6000600160008373ffffffffffffffffffffffffffffffffffffffff1673ffffffffffffffffffffffffffffffffffffffff1681526020019081526020016000205490506000600160008473ffffffffffffffffffffffffffffffffffffffff1673ffffffffffffffffffffffffffffffffffffffff168152602001908152602001600020819055508173ffffffffffffffffffffffffffffffffffffffff166108fc829081150290604051600060405180830381858888f1935050505015801561029b573d6000803e3d6000fd5b50505056fea265627a7a72315820869cbb0314937e0a0dea888967d2447509ae4f2658dd18e84e8f099c4311132a64736f6c63430005100032",
  "source": "pragma solidity ^0.5.16;\n\ncontract EscrowC2P\n{\n    address consumer;\n    mapping(address => uint256) public deposits;\n\n    // modifier onlyConsumer()\n    // {\n    //     require(msg.sender==consumer);\n    //     _;\n    // }\n\n    constructor() public\n    {\n        consumer = msg.sender;\n    }\n\n    function c2p_deposit(address payable _producer) public payable\n    {\n        uint256 amount = msg.value;\n        deposits[_producer] = deposits[_producer]+amount;\n    }\n\n    function c2p_withdraw(address payable _producer) public payable\n    {\n        uint256 payment = deposits[_producer];\n        deposits[_producer] = 0;\n        _producer.transfer(payment);\n    }\n}",
  "sourcePath": "/Users/varun/Desktop/Deat/contracts/escrowc2p.sol",
  "compiler": {
    "name": "solc",
    "version": "0.5.16+commit.9c3226ce.Emscripten.clang"
  },
  "schemaVersion": "3.4.3",
  "updatedAt": "2022-04-21T10:00:35.831Z",
  "networkType": "ethereum",
  "devdoc": {
    "methods": {}
  },
  "userdoc": {
    "methods": {}
  }
}