{
  "contractName": "EscrowC2P",
  "abi": [
    {
      "inputs": [
        {
          "internalType": "address",
          "name": "_consumer",
          "type": "address"
        },
        {
          "internalType": "address payable",
          "name": "_producer",
          "type": "address"
        }
      ],
      "payable": false,
      "stateMutability": "nonpayable",
      "type": "constructor"
    },
    {
      "constant": true,
      "inputs": [],
      "name": "consumer",
      "outputs": [
        {
          "internalType": "address",
          "name": "",
          "type": "address"
        }
      ],
      "payable": false,
      "stateMutability": "view",
      "type": "function"
    },
    {
      "constant": true,
      "inputs": [],
      "name": "currState",
      "outputs": [
        {
          "internalType": "enum EscrowC2P.State",
          "name": "",
          "type": "uint8"
        }
      ],
      "payable": false,
      "stateMutability": "view",
      "type": "function"
    },
    {
      "constant": true,
      "inputs": [],
      "name": "producer",
      "outputs": [
        {
          "internalType": "address payable",
          "name": "",
          "type": "address"
        }
      ],
      "payable": false,
      "stateMutability": "view",
      "type": "function"
    },
    {
      "constant": false,
      "inputs": [],
      "name": "deposit",
      "outputs": [],
      "payable": true,
      "stateMutability": "payable",
      "type": "function"
    },
    {
      "constant": false,
      "inputs": [],
      "name": "confirmDelivery",
      "outputs": [],
      "payable": false,
      "stateMutability": "nonpayable",
      "type": "function"
    }
  ],
  "bytecode": "0x608060405234801561001057600080fd5b506040516106373803806106378339818101604052604081101561003357600080fd5b81019080805190602001909291908051906020019092919050505081600060016101000a81548173ffffffffffffffffffffffffffffffffffffffff021916908373ffffffffffffffffffffffffffffffffffffffff16021790555080600160006101000a81548173ffffffffffffffffffffffffffffffffffffffff021916908373ffffffffffffffffffffffffffffffffffffffff1602179055505050610556806100e16000396000f3fe60806040526004361061004a5760003560e01c8063376126721461004f5780635e10177b146100a6578063afe01043146100bd578063b4fd7296146100f6578063d0e30db01461014d575b600080fd5b34801561005b57600080fd5b50610064610157565b604051808273ffffffffffffffffffffffffffffffffffffffff1673ffffffffffffffffffffffffffffffffffffffff16815260200191505060405180910390f35b3480156100b257600080fd5b506100bb61017d565b005b3480156100c957600080fd5b506100d261034b565b604051808260028111156100e257fe5b60ff16815260200191505060405180910390f35b34801561010257600080fd5b5061010b61035d565b604051808273ffffffffffffffffffffffffffffffffffffffff1673ffffffffffffffffffffffffffffffffffffffff16815260200191505060405180910390f35b610155610383565b005b600160009054906101000a900473ffffffffffffffffffffffffffffffffffffffff1681565b600060019054906101000a900473ffffffffffffffffffffffffffffffffffffffff1673ffffffffffffffffffffffffffffffffffffffff163373ffffffffffffffffffffffffffffffffffffffff1614610223576040517f08c379a00000000000000000000000000000000000000000000000000000000081526004018080602001828103825260268152602001806104fc6026913960400191505060405180910390fd5b6001600281111561023057fe5b6000809054906101000a900460ff16600281111561024a57fe5b146102bd576040517f08c379a000000000000000000000000000000000000000000000000000000000815260040180806020018281038252601f8152602001807f44656c697665727920686173206e6f74206265656e20636f6e6669726d65640081525060200191505060405180910390fd5b600160009054906101000a900473ffffffffffffffffffffffffffffffffffffffff1673ffffffffffffffffffffffffffffffffffffffff166108fc479081150290604051600060405180830381858888f19350505050158015610325573d6000803e3d6000fd5b5060026000806101000a81548160ff0219169083600281111561034457fe5b0217905550565b6000809054906101000a900460ff1681565b600060019054906101000a900473ffffffffffffffffffffffffffffffffffffffff1681565b600060019054906101000a900473ffffffffffffffffffffffffffffffffffffffff1673ffffffffffffffffffffffffffffffffffffffff163373ffffffffffffffffffffffffffffffffffffffff1614610429576040517f08c379a00000000000000000000000000000000000000000000000000000000081526004018080602001828103825260268152602001806104fc6026913960400191505060405180910390fd5b6000600281111561043657fe5b6000809054906101000a900460ff16600281111561045057fe5b146104a6576040517f08c379a00000000000000000000000000000000000000000000000000000000081526004018080602001828103825260308152602001806104cc6030913960400191505060405180910390fd5b60016000806101000a81548160ff021916908360028111156104c457fe5b021790555056fe436f6e73756d65722068617320616c7265616479207061696420746f2074686520457363726f7720436f6e74726163744f6e6c792074686520636f6e73756d65722063616e2063616c6c2074686973206d6574686f64a265627a7a72315820e911a47bbf143644d439ad64331af698a6f45c786d1950b5119da6ea9677347264736f6c63430005100032",
  "source": "pragma solidity ^0.5.16;\n\ncontract EscrowC2P\n{\n    enum State { AwaitingPayToEscrow, AwaitingDeliveryOfItem, Complete }        //State of the item\n    State public currState;                                                     //Current state\n\n    address public consumer;                                                       //consumer address\n    address payable public producer;                                               //producer address (payable as it recieves ether)\n\n    modifier onlyConsumer()\n    {\n        require(msg.sender == consumer, \"Only the consumer can call this method\");\n        _;\n    }\n\n    constructor (address _consumer, address payable _producer) public\n    {\n        consumer = _consumer;\n        producer = _producer;\n    }\n\n    function deposit() onlyConsumer external payable\n    {\n        require(currState == State.AwaitingPayToEscrow, \"Consumer has already paid to the Escrow Contract\");\n        currState = State.AwaitingDeliveryOfItem;\n    }\n\n    function confirmDelivery() onlyConsumer external\n    {\n        require(currState == State.AwaitingDeliveryOfItem, \"Delivery has not been confirmed\");\n        producer.transfer(address(this).balance);\n        currState = State.Complete;  \n    }\n}",
  "sourcePath": "/Users/varun/Desktop/Deat/contracts/escrowc2p.sol",
  "compiler": {
    "name": "solc",
    "version": "0.5.16+commit.9c3226ce.Emscripten.clang"
  },
  "schemaVersion": "3.4.3",
  "updatedAt": "2022-04-12T11:13:47.176Z",
  "devdoc": {
    "methods": {}
  },
  "userdoc": {
    "methods": {}
  }
}