{
  "contractName": "EscrowC2D",
  "abi": [
    {
      "inputs": [
        {
          "internalType": "address",
          "name": "_consumer",
          "type": "address"
        },
        {
          "internalType": "address payable",
          "name": "_deliver",
          "type": "address"
        }
      ],
      "payable": false,
      "stateMutability": "nonpayable",
      "type": "constructor"
    },
    {
      "constant": true,
      "inputs": [],
      "name": "consumer",
      "outputs": [
        {
          "internalType": "address",
          "name": "",
          "type": "address"
        }
      ],
      "payable": false,
      "stateMutability": "view",
      "type": "function"
    },
    {
      "constant": true,
      "inputs": [],
      "name": "currState",
      "outputs": [
        {
          "internalType": "enum EscrowC2D.State",
          "name": "",
          "type": "uint8"
        }
      ],
      "payable": false,
      "stateMutability": "view",
      "type": "function"
    },
    {
      "constant": true,
      "inputs": [],
      "name": "deliver",
      "outputs": [
        {
          "internalType": "address payable",
          "name": "",
          "type": "address"
        }
      ],
      "payable": false,
      "stateMutability": "view",
      "type": "function"
    },
    {
      "constant": false,
      "inputs": [],
      "name": "deposit",
      "outputs": [],
      "payable": true,
      "stateMutability": "payable",
      "type": "function"
    },
    {
      "constant": false,
      "inputs": [],
      "name": "confirmDelivery",
      "outputs": [],
      "payable": false,
      "stateMutability": "nonpayable",
      "type": "function"
    }
  ],
  "bytecode": "0x608060405234801561001057600080fd5b506040516106373803806106378339818101604052604081101561003357600080fd5b81019080805190602001909291908051906020019092919050505081600060016101000a81548173ffffffffffffffffffffffffffffffffffffffff021916908373ffffffffffffffffffffffffffffffffffffffff16021790555080600160006101000a81548173ffffffffffffffffffffffffffffffffffffffff021916908373ffffffffffffffffffffffffffffffffffffffff1602179055505050610556806100e16000396000f3fe60806040526004361061004a5760003560e01c80635e10177b1461004f578063afe0104314610066578063b4fd72961461009f578063d0e30db0146100f6578063fd3e50a714610100575b600080fd5b34801561005b57600080fd5b50610064610157565b005b34801561007257600080fd5b5061007b610325565b6040518082600281111561008b57fe5b60ff16815260200191505060405180910390f35b3480156100ab57600080fd5b506100b4610337565b604051808273ffffffffffffffffffffffffffffffffffffffff1673ffffffffffffffffffffffffffffffffffffffff16815260200191505060405180910390f35b6100fe61035d565b005b34801561010c57600080fd5b506101156104a5565b604051808273ffffffffffffffffffffffffffffffffffffffff1673ffffffffffffffffffffffffffffffffffffffff16815260200191505060405180910390f35b600060019054906101000a900473ffffffffffffffffffffffffffffffffffffffff1673ffffffffffffffffffffffffffffffffffffffff163373ffffffffffffffffffffffffffffffffffffffff16146101fd576040517f08c379a00000000000000000000000000000000000000000000000000000000081526004018080602001828103825260268152602001806104fc6026913960400191505060405180910390fd5b6001600281111561020a57fe5b6000809054906101000a900460ff16600281111561022457fe5b14610297576040517f08c379a000000000000000000000000000000000000000000000000000000000815260040180806020018281038252601f8152602001807f44656c697665727920686173206e6f74206265656e20636f6e6669726d65640081525060200191505060405180910390fd5b600160009054906101000a900473ffffffffffffffffffffffffffffffffffffffff1673ffffffffffffffffffffffffffffffffffffffff166108fc479081150290604051600060405180830381858888f193505050501580156102ff573d6000803e3d6000fd5b5060026000806101000a81548160ff0219169083600281111561031e57fe5b0217905550565b6000809054906101000a900460ff1681565b600060019054906101000a900473ffffffffffffffffffffffffffffffffffffffff1681565b600060019054906101000a900473ffffffffffffffffffffffffffffffffffffffff1673ffffffffffffffffffffffffffffffffffffffff163373ffffffffffffffffffffffffffffffffffffffff1614610403576040517f08c379a00000000000000000000000000000000000000000000000000000000081526004018080602001828103825260268152602001806104fc6026913960400191505060405180910390fd5b6000600281111561041057fe5b6000809054906101000a900460ff16600281111561042a57fe5b14610480576040517f08c379a00000000000000000000000000000000000000000000000000000000081526004018080602001828103825260308152602001806104cc6030913960400191505060405180910390fd5b60016000806101000a81548160ff0219169083600281111561049e57fe5b0217905550565b600160009054906101000a900473ffffffffffffffffffffffffffffffffffffffff168156fe436f6e73756d65722068617320616c7265616479207061696420746f2074686520457363726f7720436f6e74726163744f6e6c792074686520636f6e73756d65722063616e2063616c6c2074686973206d6574686f64a265627a7a7231582046e5f2937037f8034633ad4a63391792cd9404fba6e9fbed56a582477066847e64736f6c63430005100032",
  "source": "pragma solidity ^0.5.16;\n\ncontract EscrowC2D\n{\n    enum State { AwaitingPayToEscrow, AwaitingDeliveryOfItem, Complete }        //State of the item\n    State public currState;                                                     //Current state\n\n    address public consumer;                                                       //consumer address\n    address payable public deliver;                                               //producer address (payable as it recieves ether)\n\n    modifier onlyConsumer()\n    {\n        require(msg.sender == consumer, \"Only the consumer can call this method\");\n        _;\n    }\n\n    constructor (address _consumer, address payable _deliver) public\n    {\n        consumer = _consumer;\n        deliver = _deliver;\n    }\n\n    function deposit() onlyConsumer external payable\n    {\n        require(currState == State.AwaitingPayToEscrow, \"Consumer has already paid to the Escrow Contract\");\n        currState = State.AwaitingDeliveryOfItem;\n    }\n\n    function confirmDelivery() onlyConsumer external\n    {\n        require(currState == State.AwaitingDeliveryOfItem, \"Delivery has not been confirmed\");\n        deliver.transfer(address(this).balance);\n        currState = State.Complete;  \n    }\n}",
  "sourcePath": "/Users/varun/Desktop/Deat/contracts/escrowc2d.sol",
  "compiler": {
    "name": "solc",
    "version": "0.5.16+commit.9c3226ce.Emscripten.clang"
  },
  "schemaVersion": "3.4.3",
  "updatedAt": "2022-04-12T11:13:47.174Z",
  "devdoc": {
    "methods": {}
  },
  "userdoc": {
    "methods": {}
  }
}